{
  "contractName": "ERC1155PresetMinterPauser",
  "abi": [
    {
      "inputs": [
        {
          "internalType": "string",
          "name": "uri",
          "type": "string"
        }
      ],
      "stateMutability": "nonpayable",
      "type": "constructor"
    },
    {
      "anonymous": false,
      "inputs": [
        {
          "indexed": true,
          "internalType": "address",
          "name": "account",
          "type": "address"
        },
        {
          "indexed": true,
          "internalType": "address",
          "name": "operator",
          "type": "address"
        },
        {
          "indexed": false,
          "internalType": "bool",
          "name": "approved",
          "type": "bool"
        }
      ],
      "name": "ApprovalForAll",
      "type": "event"
    },
    {
      "anonymous": false,
      "inputs": [
        {
          "indexed": false,
          "internalType": "address",
          "name": "account",
          "type": "address"
        }
      ],
      "name": "Paused",
      "type": "event"
    },
    {
      "anonymous": false,
      "inputs": [
        {
          "indexed": true,
          "internalType": "bytes32",
          "name": "role",
          "type": "bytes32"
        },
        {
          "indexed": true,
          "internalType": "bytes32",
          "name": "previousAdminRole",
          "type": "bytes32"
        },
        {
          "indexed": true,
          "internalType": "bytes32",
          "name": "newAdminRole",
          "type": "bytes32"
        }
      ],
      "name": "RoleAdminChanged",
      "type": "event"
    },
    {
      "anonymous": false,
      "inputs": [
        {
          "indexed": true,
          "internalType": "bytes32",
          "name": "role",
          "type": "bytes32"
        },
        {
          "indexed": true,
          "internalType": "address",
          "name": "account",
          "type": "address"
        },
        {
          "indexed": true,
          "internalType": "address",
          "name": "sender",
          "type": "address"
        }
      ],
      "name": "RoleGranted",
      "type": "event"
    },
    {
      "anonymous": false,
      "inputs": [
        {
          "indexed": true,
          "internalType": "bytes32",
          "name": "role",
          "type": "bytes32"
        },
        {
          "indexed": true,
          "internalType": "address",
          "name": "account",
          "type": "address"
        },
        {
          "indexed": true,
          "internalType": "address",
          "name": "sender",
          "type": "address"
        }
      ],
      "name": "RoleRevoked",
      "type": "event"
    },
    {
      "anonymous": false,
      "inputs": [
        {
          "indexed": true,
          "internalType": "address",
          "name": "operator",
          "type": "address"
        },
        {
          "indexed": true,
          "internalType": "address",
          "name": "from",
          "type": "address"
        },
        {
          "indexed": true,
          "internalType": "address",
          "name": "to",
          "type": "address"
        },
        {
          "indexed": false,
          "internalType": "uint256[]",
          "name": "ids",
          "type": "uint256[]"
        },
        {
          "indexed": false,
          "internalType": "uint256[]",
          "name": "values",
          "type": "uint256[]"
        }
      ],
      "name": "TransferBatch",
      "type": "event"
    },
    {
      "anonymous": false,
      "inputs": [
        {
          "indexed": true,
          "internalType": "address",
          "name": "operator",
          "type": "address"
        },
        {
          "indexed": true,
          "internalType": "address",
          "name": "from",
          "type": "address"
        },
        {
          "indexed": true,
          "internalType": "address",
          "name": "to",
          "type": "address"
        },
        {
          "indexed": false,
          "internalType": "uint256",
          "name": "id",
          "type": "uint256"
        },
        {
          "indexed": false,
          "internalType": "uint256",
          "name": "value",
          "type": "uint256"
        }
      ],
      "name": "TransferSingle",
      "type": "event"
    },
    {
      "anonymous": false,
      "inputs": [
        {
          "indexed": false,
          "internalType": "string",
          "name": "value",
          "type": "string"
        },
        {
          "indexed": true,
          "internalType": "uint256",
          "name": "id",
          "type": "uint256"
        }
      ],
      "name": "URI",
      "type": "event"
    },
    {
      "anonymous": false,
      "inputs": [
        {
          "indexed": false,
          "internalType": "address",
          "name": "account",
          "type": "address"
        }
      ],
      "name": "Unpaused",
      "type": "event"
    },
    {
      "inputs": [],
      "name": "DEFAULT_ADMIN_ROLE",
      "outputs": [
        {
          "internalType": "bytes32",
          "name": "",
          "type": "bytes32"
        }
      ],
      "stateMutability": "view",
      "type": "function"
    },
    {
      "inputs": [],
      "name": "MINTER_ROLE",
      "outputs": [
        {
          "internalType": "bytes32",
          "name": "",
          "type": "bytes32"
        }
      ],
      "stateMutability": "view",
      "type": "function"
    },
    {
      "inputs": [],
      "name": "PAUSER_ROLE",
      "outputs": [
        {
          "internalType": "bytes32",
          "name": "",
          "type": "bytes32"
        }
      ],
      "stateMutability": "view",
      "type": "function"
    },
    {
      "inputs": [
        {
          "internalType": "address",
          "name": "account",
          "type": "address"
        },
        {
          "internalType": "uint256",
          "name": "id",
          "type": "uint256"
        }
      ],
      "name": "balanceOf",
      "outputs": [
        {
          "internalType": "uint256",
          "name": "",
          "type": "uint256"
        }
      ],
      "stateMutability": "view",
      "type": "function"
    },
    {
      "inputs": [
        {
          "internalType": "address[]",
          "name": "accounts",
          "type": "address[]"
        },
        {
          "internalType": "uint256[]",
          "name": "ids",
          "type": "uint256[]"
        }
      ],
      "name": "balanceOfBatch",
      "outputs": [
        {
          "internalType": "uint256[]",
          "name": "",
          "type": "uint256[]"
        }
      ],
      "stateMutability": "view",
      "type": "function"
    },
    {
      "inputs": [
        {
          "internalType": "address",
          "name": "account",
          "type": "address"
        },
        {
          "internalType": "uint256",
          "name": "id",
          "type": "uint256"
        },
        {
          "internalType": "uint256",
          "name": "value",
          "type": "uint256"
        }
      ],
      "name": "burn",
      "outputs": [],
      "stateMutability": "nonpayable",
      "type": "function"
    },
    {
      "inputs": [
        {
          "internalType": "address",
          "name": "account",
          "type": "address"
        },
        {
          "internalType": "uint256[]",
          "name": "ids",
          "type": "uint256[]"
        },
        {
          "internalType": "uint256[]",
          "name": "values",
          "type": "uint256[]"
        }
      ],
      "name": "burnBatch",
      "outputs": [],
      "stateMutability": "nonpayable",
      "type": "function"
    },
    {
      "inputs": [
        {
          "internalType": "bytes32",
          "name": "role",
          "type": "bytes32"
        }
      ],
      "name": "getRoleAdmin",
      "outputs": [
        {
          "internalType": "bytes32",
          "name": "",
          "type": "bytes32"
        }
      ],
      "stateMutability": "view",
      "type": "function"
    },
    {
      "inputs": [
        {
          "internalType": "bytes32",
          "name": "role",
          "type": "bytes32"
        },
        {
          "internalType": "uint256",
          "name": "index",
          "type": "uint256"
        }
      ],
      "name": "getRoleMember",
      "outputs": [
        {
          "internalType": "address",
          "name": "",
          "type": "address"
        }
      ],
      "stateMutability": "view",
      "type": "function"
    },
    {
      "inputs": [
        {
          "internalType": "bytes32",
          "name": "role",
          "type": "bytes32"
        }
      ],
      "name": "getRoleMemberCount",
      "outputs": [
        {
          "internalType": "uint256",
          "name": "",
          "type": "uint256"
        }
      ],
      "stateMutability": "view",
      "type": "function"
    },
    {
      "inputs": [
        {
          "internalType": "bytes32",
          "name": "role",
          "type": "bytes32"
        },
        {
          "internalType": "address",
          "name": "account",
          "type": "address"
        }
      ],
      "name": "grantRole",
      "outputs": [],
      "stateMutability": "nonpayable",
      "type": "function"
    },
    {
      "inputs": [
        {
          "internalType": "bytes32",
          "name": "role",
          "type": "bytes32"
        },
        {
          "internalType": "address",
          "name": "account",
          "type": "address"
        }
      ],
      "name": "hasRole",
      "outputs": [
        {
          "internalType": "bool",
          "name": "",
          "type": "bool"
        }
      ],
      "stateMutability": "view",
      "type": "function"
    },
    {
      "inputs": [
        {
          "internalType": "address",
          "name": "account",
          "type": "address"
        },
        {
          "internalType": "address",
          "name": "operator",
          "type": "address"
        }
      ],
      "name": "isApprovedForAll",
      "outputs": [
        {
          "internalType": "bool",
          "name": "",
          "type": "bool"
        }
      ],
      "stateMutability": "view",
      "type": "function"
    },
    {
      "inputs": [],
      "name": "paused",
      "outputs": [
        {
          "internalType": "bool",
          "name": "",
          "type": "bool"
        }
      ],
      "stateMutability": "view",
      "type": "function"
    },
    {
      "inputs": [
        {
          "internalType": "bytes32",
          "name": "role",
          "type": "bytes32"
        },
        {
          "internalType": "address",
          "name": "account",
          "type": "address"
        }
      ],
      "name": "renounceRole",
      "outputs": [],
      "stateMutability": "nonpayable",
      "type": "function"
    },
    {
      "inputs": [
        {
          "internalType": "bytes32",
          "name": "role",
          "type": "bytes32"
        },
        {
          "internalType": "address",
          "name": "account",
          "type": "address"
        }
      ],
      "name": "revokeRole",
      "outputs": [],
      "stateMutability": "nonpayable",
      "type": "function"
    },
    {
      "inputs": [
        {
          "internalType": "address",
          "name": "from",
          "type": "address"
        },
        {
          "internalType": "address",
          "name": "to",
          "type": "address"
        },
        {
          "internalType": "uint256[]",
          "name": "ids",
          "type": "uint256[]"
        },
        {
          "internalType": "uint256[]",
          "name": "amounts",
          "type": "uint256[]"
        },
        {
          "internalType": "bytes",
          "name": "data",
          "type": "bytes"
        }
      ],
      "name": "safeBatchTransferFrom",
      "outputs": [],
      "stateMutability": "nonpayable",
      "type": "function"
    },
    {
      "inputs": [
        {
          "internalType": "address",
          "name": "from",
          "type": "address"
        },
        {
          "internalType": "address",
          "name": "to",
          "type": "address"
        },
        {
          "internalType": "uint256",
          "name": "id",
          "type": "uint256"
        },
        {
          "internalType": "uint256",
          "name": "amount",
          "type": "uint256"
        },
        {
          "internalType": "bytes",
          "name": "data",
          "type": "bytes"
        }
      ],
      "name": "safeTransferFrom",
      "outputs": [],
      "stateMutability": "nonpayable",
      "type": "function"
    },
    {
      "inputs": [
        {
          "internalType": "address",
          "name": "operator",
          "type": "address"
        },
        {
          "internalType": "bool",
          "name": "approved",
          "type": "bool"
        }
      ],
      "name": "setApprovalForAll",
      "outputs": [],
      "stateMutability": "nonpayable",
      "type": "function"
    },
    {
      "inputs": [
        {
          "internalType": "uint256",
          "name": "",
          "type": "uint256"
        }
      ],
      "name": "uri",
      "outputs": [
        {
          "internalType": "string",
          "name": "",
          "type": "string"
        }
      ],
      "stateMutability": "view",
      "type": "function"
    },
    {
      "inputs": [
        {
          "internalType": "address",
          "name": "to",
          "type": "address"
        },
        {
          "internalType": "uint256",
          "name": "id",
          "type": "uint256"
        },
        {
          "internalType": "uint256",
          "name": "amount",
          "type": "uint256"
        },
        {
          "internalType": "bytes",
          "name": "data",
          "type": "bytes"
        }
      ],
      "name": "mint",
      "outputs": [],
      "stateMutability": "nonpayable",
      "type": "function"
    },
    {
      "inputs": [
        {
          "internalType": "address",
          "name": "to",
          "type": "address"
        },
        {
          "internalType": "uint256[]",
          "name": "ids",
          "type": "uint256[]"
        },
        {
          "internalType": "uint256[]",
          "name": "amounts",
          "type": "uint256[]"
        },
        {
          "internalType": "bytes",
          "name": "data",
          "type": "bytes"
        }
      ],
      "name": "mintBatch",
      "outputs": [],
      "stateMutability": "nonpayable",
      "type": "function"
    },
    {
      "inputs": [],
      "name": "pause",
      "outputs": [],
      "stateMutability": "nonpayable",
      "type": "function"
    },
    {
      "inputs": [],
      "name": "unpause",
      "outputs": [],
      "stateMutability": "nonpayable",
      "type": "function"
    },
    {
      "inputs": [
        {
          "internalType": "bytes4",
          "name": "interfaceId",
          "type": "bytes4"
        }
      ],
      "name": "supportsInterface",
      "outputs": [
        {
          "internalType": "bool",
          "name": "",
          "type": "bool"
        }
      ],
      "stateMutability": "view",
      "type": "function"
    }
  ],
  "bytecode": "0x60806040523480156200001157600080fd5b50604051620051a3380380620051a38339818101604052810190620000379190620004e6565b8062000049816200011260201b60201c565b506000600560006101000a81548160ff021916908315150217905550620000896000801b6200007d6200012e60201b60201c565b6200013660201b60201c565b620000ca7f9f2df0fed2c77648de5860a4cc508cd0818c85b8b8a1ab4ceeef8d981c8956a6620000be6200012e60201b60201c565b6200013660201b60201c565b6200010b7f65d7a28e3265b37a6474929f336521b332c1681b933f6cb9f3376673440d862a620000ff6200012e60201b60201c565b6200013660201b60201c565b506200069b565b80600490805190602001906200012a929190620003c4565b5050565b600033905090565b6200014d82826200017e60201b620016251760201c565b6200017981600160008581526020019081526020016000206200019460201b620016331790919060201c565b505050565b620001908282620001cc60201b60201c565b5050565b6000620001c4836000018373ffffffffffffffffffffffffffffffffffffffff1660001b620002bd60201b60201c565b905092915050565b620001de82826200033760201b60201c565b620002b957600160008084815260200190815260200160002060000160008373ffffffffffffffffffffffffffffffffffffffff1673ffffffffffffffffffffffffffffffffffffffff16815260200190815260200160002060006101000a81548160ff0219169083151502179055506200025e6200012e60201b60201c565b73ffffffffffffffffffffffffffffffffffffffff168173ffffffffffffffffffffffffffffffffffffffff16837f2f8788117e7eff1d82e926ec794901d17c78024a50270940304540a733656f0d60405160405180910390a45b5050565b6000620002d18383620003a160201b60201c565b6200032c57826000018290806001815401808255809150506001900390600052602060002001600090919091909150558260000180549050836001016000848152602001908152602001600020819055506001905062000331565b600090505b92915050565b600080600084815260200190815260200160002060000160008373ffffffffffffffffffffffffffffffffffffffff1673ffffffffffffffffffffffffffffffffffffffff16815260200190815260200160002060009054906101000a900460ff16905092915050565b600080836001016000848152602001908152602001600020541415905092915050565b828054620003d290620005c0565b90600052602060002090601f016020900481019282620003f6576000855562000442565b82601f106200041157805160ff191683800117855562000442565b8280016001018555821562000442579182015b828111156200044157825182559160200191906001019062000424565b5b50905062000451919062000455565b5090565b5b808211156200047057600081600090555060010162000456565b5090565b60006200048b620004858462000554565b6200052b565b905082815260208101848484011115620004a457600080fd5b620004b18482856200058a565b509392505050565b600082601f830112620004cb57600080fd5b8151620004dd84826020860162000474565b91505092915050565b600060208284031215620004f957600080fd5b600082015167ffffffffffffffff8111156200051457600080fd5b6200052284828501620004b9565b91505092915050565b6000620005376200054a565b9050620005458282620005f6565b919050565b6000604051905090565b600067ffffffffffffffff8211156200057257620005716200065b565b5b6200057d826200068a565b9050602081019050919050565b60005b83811015620005aa5780820151818401526020810190506200058d565b83811115620005ba576000848401525b50505050565b60006002820490506001821680620005d957607f821691505b60208210811415620005f057620005ef6200062c565b5b50919050565b62000601826200068a565b810181811067ffffffffffffffff821117156200062357620006226200065b565b5b80604052505050565b7f4e487b7100000000000000000000000000000000000000000000000000000000600052602260045260246000fd5b7f4e487b7100000000000000000000000000000000000000000000000000000000600052604160045260246000fd5b6000601f19601f8301169050919050565b614af880620006ab6000396000f3fe608060405234801561001057600080fd5b50600436106101725760003560e01c8063731133e9116100de578063ca15c87311610097578063e63ab1e911610071578063e63ab1e914610445578063e985e9c514610463578063f242432a14610493578063f5298aca146104af57610172565b8063ca15c873146103db578063d53913931461040b578063d547741f1461042957610172565b8063731133e91461031b5780638456cb59146103375780639010d07c1461034157806391d1485414610371578063a217fddf146103a1578063a22cb465146103bf57610172565b80632f2ff15d116101305780632f2ff15d1461026f57806336568abe1461028b5780633f4ba83a146102a75780634e1273f4146102b15780635c975abb146102e15780636b20c454146102ff57610172565b8062fdd58e1461017757806301ffc9a7146101a75780630e89341c146101d75780631f7fdffa14610207578063248a9ca3146102235780632eb2c2d614610253575b600080fd5b610191600480360381019061018c9190613372565b6104cb565b60405161019e9190613ec6565b60405180910390f35b6101c160048036038101906101bc9190613585565b610595565b6040516101ce9190613b8e565b60405180910390f35b6101f160048036038101906101ec91906135d7565b6105a7565b6040516101fe9190613bc4565b60405180910390f35b610221600480360381019061021c919061328b565b61063b565b005b61023d600480360381019061023891906134e4565b6106bd565b60405161024a9190613ba9565b60405180910390f35b61026d600480360381019061026891906130be565b6106dc565b005b6102896004803603810190610284919061350d565b610ad5565b005b6102a560048036038101906102a0919061350d565b610b09565b005b6102af610b3d565b005b6102cb60048036038101906102c69190613478565b610bb7565b6040516102d89190613b35565b60405180910390f35b6102e9610d68565b6040516102f69190613b8e565b60405180910390f35b6103196004803603810190610314919061320c565b610d7f565b005b610335600480360381019061033091906133fd565b610e1c565b005b61033f610e9e565b005b61035b60048036038101906103569190613549565b610f18565b6040516103689190613a58565b60405180910390f35b61038b6004803603810190610386919061350d565b610f47565b6040516103989190613b8e565b60405180910390f35b6103a9610fb1565b6040516103b69190613ba9565b60405180910390f35b6103d960048036038101906103d49190613336565b610fb8565b005b6103f560048036038101906103f091906134e4565b611139565b6040516104029190613ec6565b60405180910390f35b61041361115d565b6040516104209190613ba9565b60405180910390f35b610443600480360381019061043e919061350d565b611181565b005b61044d6111b5565b60405161045a9190613ba9565b60405180910390f35b61047d60048036038101906104789190613082565b6111d9565b60405161048a9190613b8e565b60405180910390f35b6104ad60048036038101906104a8919061317d565b61126d565b005b6104c960048036038101906104c491906133ae565b611588565b005b60008073ffffffffffffffffffffffffffffffffffffffff168373ffffffffffffffffffffffffffffffffffffffff16141561053c576040517f08c379a000000000000000000000000000000000000000000000000000000000815260040161053390613c86565b60405180910390fd5b6002600083815260200190815260200160002060008473ffffffffffffffffffffffffffffffffffffffff1673ffffffffffffffffffffffffffffffffffffffff16815260200190815260200160002054905092915050565b60006105a082611663565b9050919050565b6060600480546105b690614173565b80601f01602080910402602001604051908101604052809291908181526020018280546105e290614173565b801561062f5780601f106106045761010080835404028352916020019161062f565b820191906000526020600020905b81548152906001019060200180831161061257829003601f168201915b50505050509050919050565b61066c7f9f2df0fed2c77648de5860a4cc508cd0818c85b8b8a1ab4ceeef8d981c8956a6610667611745565b610f47565b6106ab576040517f08c379a00000000000000000000000000000000000000000000000000000000081526004016106a290613da6565b60405180910390fd5b6106b78484848461174d565b50505050565b6000806000838152602001908152602001600020600101549050919050565b8151835114610720576040517f08c379a000000000000000000000000000000000000000000000000000000000815260040161071790613e66565b60405180910390fd5b600073ffffffffffffffffffffffffffffffffffffffff168473ffffffffffffffffffffffffffffffffffffffff161415610790576040517f08c379a000000000000000000000000000000000000000000000000000000000815260040161078790613d46565b60405180910390fd5b610798611745565b73ffffffffffffffffffffffffffffffffffffffff168573ffffffffffffffffffffffffffffffffffffffff1614806107de57506107dd856107d8611745565b6111d9565b5b61081d576040517f08c379a000000000000000000000000000000000000000000000000000000000815260040161081490613d66565b60405180910390fd5b6000610827611745565b90506108378187878787876119b8565b60005b8451811015610a4057600085828151811061087e577f4e487b7100000000000000000000000000000000000000000000000000000000600052603260045260246000fd5b6020026020010151905060008583815181106108c3577f4e487b7100000000000000000000000000000000000000000000000000000000600052603260045260246000fd5b6020026020010151905060006002600084815260200190815260200160002060008b73ffffffffffffffffffffffffffffffffffffffff1673ffffffffffffffffffffffffffffffffffffffff16815260200190815260200160002054905081811015610965576040517f08c379a000000000000000000000000000000000000000000000000000000000815260040161095c90613dc6565b60405180910390fd5b8181610971919061407f565b6002600085815260200190815260200160002060008c73ffffffffffffffffffffffffffffffffffffffff1673ffffffffffffffffffffffffffffffffffffffff16815260200190815260200160002081905550816002600085815260200190815260200160002060008b73ffffffffffffffffffffffffffffffffffffffff1673ffffffffffffffffffffffffffffffffffffffff1681526020019081526020016000206000828254610a259190614029565b9250508190555050505080610a39906141d6565b905061083a565b508473ffffffffffffffffffffffffffffffffffffffff168673ffffffffffffffffffffffffffffffffffffffff168273ffffffffffffffffffffffffffffffffffffffff167f4a39dc06d4c0dbc64b70af90fd698a233a518aa5d07e595d983b8c0526c8f7fb8787604051610ab7929190613b57565b60405180910390a4610acd8187878787876119ce565b505050505050565b610adf8282611bb5565b610b04816001600085815260200190815260200160002061163390919063ffffffff16565b505050565b610b138282611c1b565b610b388160016000858152602001908152602001600020611c9e90919063ffffffff16565b505050565b610b6e7f65d7a28e3265b37a6474929f336521b332c1681b933f6cb9f3376673440d862a610b69611745565b610f47565b610bad576040517f08c379a0000000000000000000000000000000000000000000000000000000008152600401610ba490613de6565b60405180910390fd5b610bb5611cce565b565b60608151835114610bfd576040517f08c379a0000000000000000000000000000000000000000000000000000000008152600401610bf490613e46565b60405180910390fd5b6000835167ffffffffffffffff811115610c40577f4e487b7100000000000000000000000000000000000000000000000000000000600052604160045260246000fd5b604051908082528060200260200182016040528015610c6e5781602001602082028036833780820191505090505b50905060005b8451811015610d5d57610d07858281518110610cb9577f4e487b7100000000000000000000000000000000000000000000000000000000600052603260045260246000fd5b6020026020010151858381518110610cfa577f4e487b7100000000000000000000000000000000000000000000000000000000600052603260045260246000fd5b60200260200101516104cb565b828281518110610d40577f4e487b7100000000000000000000000000000000000000000000000000000000600052603260045260246000fd5b60200260200101818152505080610d56906141d6565b9050610c74565b508091505092915050565b6000600560009054906101000a900460ff16905090565b610d87611745565b73ffffffffffffffffffffffffffffffffffffffff168373ffffffffffffffffffffffffffffffffffffffff161480610dcd5750610dcc83610dc7611745565b6111d9565b5b610e0c576040517f08c379a0000000000000000000000000000000000000000000000000000000008152600401610e0390613ce6565b60405180910390fd5b610e17838383611d70565b505050565b610e4d7f9f2df0fed2c77648de5860a4cc508cd0818c85b8b8a1ab4ceeef8d981c8956a6610e48611745565b610f47565b610e8c576040517f08c379a0000000000000000000000000000000000000000000000000000000008152600401610e8390613da6565b60405180910390fd5b610e9884848484612078565b50505050565b610ecf7f65d7a28e3265b37a6474929f336521b332c1681b933f6cb9f3376673440d862a610eca611745565b610f47565b610f0e576040517f08c379a0000000000000000000000000000000000000000000000000000000008152600401610f0590613e06565b60405180910390fd5b610f1661220f565b565b6000610f3f82600160008681526020019081526020016000206122b290919063ffffffff16565b905092915050565b600080600084815260200190815260200160002060000160008373ffffffffffffffffffffffffffffffffffffffff1673ffffffffffffffffffffffffffffffffffffffff16815260200190815260200160002060009054906101000a900460ff16905092915050565b6000801b81565b8173ffffffffffffffffffffffffffffffffffffffff16610fd7611745565b73ffffffffffffffffffffffffffffffffffffffff16141561102e576040517f08c379a000000000000000000000000000000000000000000000000000000000815260040161102590613e26565b60405180910390fd5b806003600061103b611745565b73ffffffffffffffffffffffffffffffffffffffff1673ffffffffffffffffffffffffffffffffffffffff16815260200190815260200160002060008473ffffffffffffffffffffffffffffffffffffffff1673ffffffffffffffffffffffffffffffffffffffff16815260200190815260200160002060006101000a81548160ff0219169083151502179055508173ffffffffffffffffffffffffffffffffffffffff166110e8611745565b73ffffffffffffffffffffffffffffffffffffffff167f17307eab39ab6107e8899845ad3d59bd9653f200f220920489ca2b5937696c318360405161112d9190613b8e565b60405180910390a35050565b6000611156600160008481526020019081526020016000206122cc565b9050919050565b7f9f2df0fed2c77648de5860a4cc508cd0818c85b8b8a1ab4ceeef8d981c8956a681565b61118b82826122e1565b6111b08160016000858152602001908152602001600020611c9e90919063ffffffff16565b505050565b7f65d7a28e3265b37a6474929f336521b332c1681b933f6cb9f3376673440d862a81565b6000600360008473ffffffffffffffffffffffffffffffffffffffff1673ffffffffffffffffffffffffffffffffffffffff16815260200190815260200160002060008373ffffffffffffffffffffffffffffffffffffffff1673ffffffffffffffffffffffffffffffffffffffff16815260200190815260200160002060009054906101000a900460ff16905092915050565b600073ffffffffffffffffffffffffffffffffffffffff168473ffffffffffffffffffffffffffffffffffffffff1614156112dd576040517f08c379a00000000000000000000000000000000000000000000000000000000081526004016112d490613d46565b60405180910390fd5b6112e5611745565b73ffffffffffffffffffffffffffffffffffffffff168573ffffffffffffffffffffffffffffffffffffffff16148061132b575061132a85611325611745565b6111d9565b5b61136a576040517f08c379a000000000000000000000000000000000000000000000000000000000815260040161136190613ce6565b60405180910390fd5b6000611374611745565b905061139481878761138588612347565b61138e88612347565b876119b8565b60006002600086815260200190815260200160002060008873ffffffffffffffffffffffffffffffffffffffff1673ffffffffffffffffffffffffffffffffffffffff1681526020019081526020016000205490508381101561142c576040517f08c379a000000000000000000000000000000000000000000000000000000000815260040161142390613dc6565b60405180910390fd5b8381611438919061407f565b6002600087815260200190815260200160002060008973ffffffffffffffffffffffffffffffffffffffff1673ffffffffffffffffffffffffffffffffffffffff16815260200190815260200160002081905550836002600087815260200190815260200160002060008873ffffffffffffffffffffffffffffffffffffffff1673ffffffffffffffffffffffffffffffffffffffff16815260200190815260200160002060008282546114ec9190614029565b925050819055508573ffffffffffffffffffffffffffffffffffffffff168773ffffffffffffffffffffffffffffffffffffffff168373ffffffffffffffffffffffffffffffffffffffff167fc3d58168c5ae7397731d063d5bbf3d657854427343f4c083240f7aacaa2d0f628888604051611569929190613ee1565b60405180910390a461157f82888888888861240d565b50505050505050565b611590611745565b73ffffffffffffffffffffffffffffffffffffffff168373ffffffffffffffffffffffffffffffffffffffff1614806115d657506115d5836115d0611745565b6111d9565b5b611615576040517f08c379a000000000000000000000000000000000000000000000000000000000815260040161160c90613ce6565b60405180910390fd5b6116208383836125f4565b505050565b61162f828261281c565b5050565b600061165b836000018373ffffffffffffffffffffffffffffffffffffffff1660001b6128fc565b905092915050565b60007fd9b67a26000000000000000000000000000000000000000000000000000000007bffffffffffffffffffffffffffffffffffffffffffffffffffffffff1916827bffffffffffffffffffffffffffffffffffffffffffffffffffffffff1916148061172e57507f0e89341c000000000000000000000000000000000000000000000000000000007bffffffffffffffffffffffffffffffffffffffffffffffffffffffff1916827bffffffffffffffffffffffffffffffffffffffffffffffffffffffff1916145b8061173e575061173d8261296c565b5b9050919050565b600033905090565b600073ffffffffffffffffffffffffffffffffffffffff168473ffffffffffffffffffffffffffffffffffffffff1614156117bd576040517f08c379a00000000000000000000000000000000000000000000000000000000081526004016117b490613e86565b60405180910390fd5b8151835114611801576040517f08c379a00000000000000000000000000000000000000000000000000000000081526004016117f890613e66565b60405180910390fd5b600061180b611745565b905061181c816000878787876119b8565b60005b845181101561192257838181518110611861577f4e487b7100000000000000000000000000000000000000000000000000000000600052603260045260246000fd5b6020026020010151600260008784815181106118a6577f4e487b7100000000000000000000000000000000000000000000000000000000600052603260045260246000fd5b6020026020010151815260200190815260200160002060008873ffffffffffffffffffffffffffffffffffffffff1673ffffffffffffffffffffffffffffffffffffffff16815260200190815260200160002060008282546119089190614029565b92505081905550808061191a906141d6565b91505061181f565b508473ffffffffffffffffffffffffffffffffffffffff16600073ffffffffffffffffffffffffffffffffffffffff168273ffffffffffffffffffffffffffffffffffffffff167f4a39dc06d4c0dbc64b70af90fd698a233a518aa5d07e595d983b8c0526c8f7fb878760405161199a929190613b57565b60405180910390a46119b1816000878787876119ce565b5050505050565b6119c68686868686866129e6565b505050505050565b6119ed8473ffffffffffffffffffffffffffffffffffffffff16612a44565b15611bad578373ffffffffffffffffffffffffffffffffffffffff1663bc197c8187878686866040518663ffffffff1660e01b8152600401611a33959493929190613a73565b602060405180830381600087803b158015611a4d57600080fd5b505af1925050508015611a7e57506040513d601f19601f82011682018060405250810190611a7b91906135ae565b60015b611b2457611a8a6142ac565b806308c379a01415611ae75750611a9f6149b9565b80611aaa5750611ae9565b806040517f08c379a0000000000000000000000000000000000000000000000000000000008152600401611ade9190613bc4565b60405180910390fd5b505b6040517f08c379a0000000000000000000000000000000000000000000000000000000008152600401611b1b90613be6565b60405180910390fd5b63bc197c8160e01b7bffffffffffffffffffffffffffffffffffffffffffffffffffffffff1916817bffffffffffffffffffffffffffffffffffffffffffffffffffffffff191614611bab576040517f08c379a0000000000000000000000000000000000000000000000000000000008152600401611ba290613c26565b60405180910390fd5b505b505050505050565b611bce611bc1836106bd565b611bc9611745565b610f47565b611c0d576040517f08c379a0000000000000000000000000000000000000000000000000000000008152600401611c0490613c46565b60405180910390fd5b611c17828261281c565b5050565b611c23611745565b73ffffffffffffffffffffffffffffffffffffffff168173ffffffffffffffffffffffffffffffffffffffff1614611c90576040517f08c379a0000000000000000000000000000000000000000000000000000000008152600401611c8790613ea6565b60405180910390fd5b611c9a8282612a57565b5050565b6000611cc6836000018373ffffffffffffffffffffffffffffffffffffffff1660001b612b38565b905092915050565b611cd6610d68565b611d15576040517f08c379a0000000000000000000000000000000000000000000000000000000008152600401611d0c90613c66565b60405180910390fd5b6000600560006101000a81548160ff0219169083151502179055507f5db9ee0a495bf2e6ff9c91a7834c1ba4fdd244a5e8aa4e537bd38aeae4b073aa611d59611745565b604051611d669190613a58565b60405180910390a1565b600073ffffffffffffffffffffffffffffffffffffffff168373ffffffffffffffffffffffffffffffffffffffff161415611de0576040517f08c379a0000000000000000000000000000000000000000000000000000000008152600401611dd790613d86565b60405180910390fd5b8051825114611e24576040517f08c379a0000000000000000000000000000000000000000000000000000000008152600401611e1b90613e66565b60405180910390fd5b6000611e2e611745565b9050611e4e818560008686604051806020016040528060008152506119b8565b60005b8351811015611ff2576000848281518110611e95577f4e487b7100000000000000000000000000000000000000000000000000000000600052603260045260246000fd5b602002602001015190506000848381518110611eda577f4e487b7100000000000000000000000000000000000000000000000000000000600052603260045260246000fd5b6020026020010151905060006002600084815260200190815260200160002060008973ffffffffffffffffffffffffffffffffffffffff1673ffffffffffffffffffffffffffffffffffffffff16815260200190815260200160002054905081811015611f7c576040517f08c379a0000000000000000000000000000000000000000000000000000000008152600401611f7390613ca6565b60405180910390fd5b8181611f88919061407f565b6002600085815260200190815260200160002060008a73ffffffffffffffffffffffffffffffffffffffff1673ffffffffffffffffffffffffffffffffffffffff168152602001908152602001600020819055505050508080611fea906141d6565b915050611e51565b50600073ffffffffffffffffffffffffffffffffffffffff168473ffffffffffffffffffffffffffffffffffffffff168273ffffffffffffffffffffffffffffffffffffffff167f4a39dc06d4c0dbc64b70af90fd698a233a518aa5d07e595d983b8c0526c8f7fb868660405161206a929190613b57565b60405180910390a450505050565b600073ffffffffffffffffffffffffffffffffffffffff168473ffffffffffffffffffffffffffffffffffffffff1614156120e8576040517f08c379a00000000000000000000000000000000000000000000000000000000081526004016120df90613e86565b60405180910390fd5b60006120f2611745565b90506121138160008761210488612347565b61210d88612347565b876119b8565b826002600086815260200190815260200160002060008773ffffffffffffffffffffffffffffffffffffffff1673ffffffffffffffffffffffffffffffffffffffff16815260200190815260200160002060008282546121739190614029565b925050819055508473ffffffffffffffffffffffffffffffffffffffff16600073ffffffffffffffffffffffffffffffffffffffff168273ffffffffffffffffffffffffffffffffffffffff167fc3d58168c5ae7397731d063d5bbf3d657854427343f4c083240f7aacaa2d0f6287876040516121f1929190613ee1565b60405180910390a46122088160008787878761240d565b5050505050565b612217610d68565b15612257576040517f08c379a000000000000000000000000000000000000000000000000000000000815260040161224e90613d26565b60405180910390fd5b6001600560006101000a81548160ff0219169083151502179055507f62e78cea01bee320cd4e420270b5ea74000d11b0c9f74754ebdbfc544b05a25861229b611745565b6040516122a89190613a58565b60405180910390a1565b60006122c18360000183612cb6565b60001c905092915050565b60006122da82600001612d50565b9050919050565b6122fa6122ed836106bd565b6122f5611745565b610f47565b612339576040517f08c379a000000000000000000000000000000000000000000000000000000000815260040161233090613d06565b60405180910390fd5b6123438282612a57565b5050565b60606000600167ffffffffffffffff81111561238c577f4e487b7100000000000000000000000000000000000000000000000000000000600052604160045260246000fd5b6040519080825280602002602001820160405280156123ba5781602001602082028036833780820191505090505b50905082816000815181106123f8577f4e487b7100000000000000000000000000000000000000000000000000000000600052603260045260246000fd5b60200260200101818152505080915050919050565b61242c8473ffffffffffffffffffffffffffffffffffffffff16612a44565b156125ec578373ffffffffffffffffffffffffffffffffffffffff1663f23a6e6187878686866040518663ffffffff1660e01b8152600401612472959493929190613adb565b602060405180830381600087803b15801561248c57600080fd5b505af19250505080156124bd57506040513d601f19601f820116820180604052508101906124ba91906135ae565b60015b612563576124c96142ac565b806308c379a0141561252657506124de6149b9565b806124e95750612528565b806040517f08c379a000000000000000000000000000000000000000000000000000000000815260040161251d9190613bc4565b60405180910390fd5b505b6040517f08c379a000000000000000000000000000000000000000000000000000000000815260040161255a90613be6565b60405180910390fd5b63f23a6e6160e01b7bffffffffffffffffffffffffffffffffffffffffffffffffffffffff1916817bffffffffffffffffffffffffffffffffffffffffffffffffffffffff1916146125ea576040517f08c379a00000000000000000000000000000000000000000000000000000000081526004016125e190613c26565b60405180910390fd5b505b505050505050565b600073ffffffffffffffffffffffffffffffffffffffff168373ffffffffffffffffffffffffffffffffffffffff161415612664576040517f08c379a000000000000000000000000000000000000000000000000000000000815260040161265b90613d86565b60405180910390fd5b600061266e611745565b905061269e8185600061268087612347565b61268987612347565b604051806020016040528060008152506119b8565b60006002600085815260200190815260200160002060008673ffffffffffffffffffffffffffffffffffffffff1673ffffffffffffffffffffffffffffffffffffffff16815260200190815260200160002054905082811015612736576040517f08c379a000000000000000000000000000000000000000000000000000000000815260040161272d90613ca6565b60405180910390fd5b8281612742919061407f565b6002600086815260200190815260200160002060008773ffffffffffffffffffffffffffffffffffffffff1673ffffffffffffffffffffffffffffffffffffffff16815260200190815260200160002081905550600073ffffffffffffffffffffffffffffffffffffffff168573ffffffffffffffffffffffffffffffffffffffff168373ffffffffffffffffffffffffffffffffffffffff167fc3d58168c5ae7397731d063d5bbf3d657854427343f4c083240f7aacaa2d0f62878760405161280d929190613ee1565b60405180910390a45050505050565b6128268282610f47565b6128f857600160008084815260200190815260200160002060000160008373ffffffffffffffffffffffffffffffffffffffff1673ffffffffffffffffffffffffffffffffffffffff16815260200190815260200160002060006101000a81548160ff02191690831515021790555061289d611745565b73ffffffffffffffffffffffffffffffffffffffff168173ffffffffffffffffffffffffffffffffffffffff16837f2f8788117e7eff1d82e926ec794901d17c78024a50270940304540a733656f0d60405160405180910390a45b5050565b60006129088383612d61565b612961578260000182908060018154018082558091505060019003906000526020600020016000909190919091505582600001805490508360010160008481526020019081526020016000208190555060019050612966565b600090505b92915050565b60007f5a05180f000000000000000000000000000000000000000000000000000000007bffffffffffffffffffffffffffffffffffffffffffffffffffffffff1916827bffffffffffffffffffffffffffffffffffffffffffffffffffffffff191614806129df57506129de82612d84565b5b9050919050565b6129f4868686868686612dfe565b6129fc610d68565b15612a3c576040517f08c379a0000000000000000000000000000000000000000000000000000000008152600401612a3390613cc6565b60405180910390fd5b505050505050565b600080823b905060008111915050919050565b612a618282610f47565b15612b3457600080600084815260200190815260200160002060000160008373ffffffffffffffffffffffffffffffffffffffff1673ffffffffffffffffffffffffffffffffffffffff16815260200190815260200160002060006101000a81548160ff021916908315150217905550612ad9611745565b73ffffffffffffffffffffffffffffffffffffffff168173ffffffffffffffffffffffffffffffffffffffff16837ff6391f5c32d9c69d2a47ea670b442974b53935d1edc7fd64eb21e047a839171b60405160405180910390a45b5050565b60008083600101600084815260200190815260200160002054905060008114612caa576000600182612b6a919061407f565b9050600060018660000180549050612b82919061407f565b90506000866000018281548110612bc2577f4e487b7100000000000000000000000000000000000000000000000000000000600052603260045260246000fd5b9060005260206000200154905080876000018481548110612c0c577f4e487b7100000000000000000000000000000000000000000000000000000000600052603260045260246000fd5b9060005260206000200181905550838760010160008381526020019081526020016000208190555086600001805480612c6e577f4e487b7100000000000000000000000000000000000000000000000000000000600052603160045260246000fd5b60019003818190600052602060002001600090559055866001016000878152602001908152602001600020600090556001945050505050612cb0565b60009150505b92915050565b600081836000018054905011612d01576040517f08c379a0000000000000000000000000000000000000000000000000000000008152600401612cf890613c06565b60405180910390fd5b826000018281548110612d3d577f4e487b7100000000000000000000000000000000000000000000000000000000600052603260045260246000fd5b9060005260206000200154905092915050565b600081600001805490509050919050565b600080836001016000848152602001908152602001600020541415905092915050565b60007f7965db0b000000000000000000000000000000000000000000000000000000007bffffffffffffffffffffffffffffffffffffffffffffffffffffffff1916827bffffffffffffffffffffffffffffffffffffffffffffffffffffffff19161480612df75750612df682612e06565b5b9050919050565b505050505050565b60007f01ffc9a7000000000000000000000000000000000000000000000000000000007bffffffffffffffffffffffffffffffffffffffffffffffffffffffff1916827bffffffffffffffffffffffffffffffffffffffffffffffffffffffff1916149050919050565b6000612e83612e7e84613f2f565b613f0a565b90508083825260208201905082856020860282011115612ea257600080fd5b60005b85811015612ed25781612eb88882612f86565b845260208401935060208301925050600181019050612ea5565b5050509392505050565b6000612eef612eea84613f5b565b613f0a565b90508083825260208201905082856020860282011115612f0e57600080fd5b60005b85811015612f3e5781612f24888261306d565b845260208401935060208301925050600181019050612f11565b5050509392505050565b6000612f5b612f5684613f87565b613f0a565b905082815260208101848484011115612f7357600080fd5b612f7e848285614131565b509392505050565b600081359050612f9581614a4f565b92915050565b600082601f830112612fac57600080fd5b8135612fbc848260208601612e70565b91505092915050565b600082601f830112612fd657600080fd5b8135612fe6848260208601612edc565b91505092915050565b600081359050612ffe81614a66565b92915050565b60008135905061301381614a7d565b92915050565b60008135905061302881614a94565b92915050565b60008151905061303d81614a94565b92915050565b600082601f83011261305457600080fd5b8135613064848260208601612f48565b91505092915050565b60008135905061307c81614aab565b92915050565b6000806040838503121561309557600080fd5b60006130a385828601612f86565b92505060206130b485828601612f86565b9150509250929050565b600080600080600060a086880312156130d657600080fd5b60006130e488828901612f86565b95505060206130f588828901612f86565b945050604086013567ffffffffffffffff81111561311257600080fd5b61311e88828901612fc5565b935050606086013567ffffffffffffffff81111561313b57600080fd5b61314788828901612fc5565b925050608086013567ffffffffffffffff81111561316457600080fd5b61317088828901613043565b9150509295509295909350565b600080600080600060a0868803121561319557600080fd5b60006131a388828901612f86565b95505060206131b488828901612f86565b94505060406131c58882890161306d565b93505060606131d68882890161306d565b925050608086013567ffffffffffffffff8111156131f357600080fd5b6131ff88828901613043565b9150509295509295909350565b60008060006060848603121561322157600080fd5b600061322f86828701612f86565b935050602084013567ffffffffffffffff81111561324c57600080fd5b61325886828701612fc5565b925050604084013567ffffffffffffffff81111561327557600080fd5b61328186828701612fc5565b9150509250925092565b600080600080608085870312156132a157600080fd5b60006132af87828801612f86565b945050602085013567ffffffffffffffff8111156132cc57600080fd5b6132d887828801612fc5565b935050604085013567ffffffffffffffff8111156132f557600080fd5b61330187828801612fc5565b925050606085013567ffffffffffffffff81111561331e57600080fd5b61332a87828801613043565b91505092959194509250565b6000806040838503121561334957600080fd5b600061335785828601612f86565b925050602061336885828601612fef565b9150509250929050565b6000806040838503121561338557600080fd5b600061339385828601612f86565b92505060206133a48582860161306d565b9150509250929050565b6000806000606084860312156133c357600080fd5b60006133d186828701612f86565b93505060206133e28682870161306d565b92505060406133f38682870161306d565b9150509250925092565b6000806000806080858703121561341357600080fd5b600061342187828801612f86565b94505060206134328782880161306d565b93505060406134438782880161306d565b925050606085013567ffffffffffffffff81111561346057600080fd5b61346c87828801613043565b91505092959194509250565b6000806040838503121561348b57600080fd5b600083013567ffffffffffffffff8111156134a557600080fd5b6134b185828601612f9b565b925050602083013567ffffffffffffffff8111156134ce57600080fd5b6134da85828601612fc5565b9150509250929050565b6000602082840312156134f657600080fd5b600061350484828501613004565b91505092915050565b6000806040838503121561352057600080fd5b600061352e85828601613004565b925050602061353f85828601612f86565b9150509250929050565b6000806040838503121561355c57600080fd5b600061356a85828601613004565b925050602061357b8582860161306d565b9150509250929050565b60006020828403121561359757600080fd5b60006135a584828501613019565b91505092915050565b6000602082840312156135c057600080fd5b60006135ce8482850161302e565b91505092915050565b6000602082840312156135e957600080fd5b60006135f78482850161306d565b91505092915050565b600061360c8383613a3a565b60208301905092915050565b613621816140b3565b82525050565b600061363282613fc8565b61363c8185613ff6565b935061364783613fb8565b8060005b8381101561367857815161365f8882613600565b975061366a83613fe9565b92505060018101905061364b565b5085935050505092915050565b61368e816140c5565b82525050565b61369d816140d1565b82525050565b60006136ae82613fd3565b6136b88185614007565b93506136c8818560208601614140565b6136d1816142ce565b840191505092915050565b60006136e782613fde565b6136f18185614018565b9350613701818560208601614140565b61370a816142ce565b840191505092915050565b6000613722603483614018565b915061372d826142ec565b604082019050919050565b6000613745602283614018565b91506137508261433b565b604082019050919050565b6000613768602883614018565b91506137738261438a565b604082019050919050565b600061378b602f83614018565b9150613796826143d9565b604082019050919050565b60006137ae601483614018565b91506137b982614428565b602082019050919050565b60006137d1602b83614018565b91506137dc82614451565b604082019050919050565b60006137f4602483614018565b91506137ff826144a0565b604082019050919050565b6000613817602c83614018565b9150613822826144ef565b604082019050919050565b600061383a602983614018565b91506138458261453e565b604082019050919050565b600061385d603083614018565b91506138688261458d565b604082019050919050565b6000613880601083614018565b915061388b826145dc565b602082019050919050565b60006138a3602583614018565b91506138ae82614605565b604082019050919050565b60006138c6603283614018565b91506138d182614654565b604082019050919050565b60006138e9602383614018565b91506138f4826146a3565b604082019050919050565b600061390c603883614018565b9150613917826146f2565b604082019050919050565b600061392f602a83614018565b915061393a82614741565b604082019050919050565b6000613952603b83614018565b915061395d82614790565b604082019050919050565b6000613975603983614018565b9150613980826147df565b604082019050919050565b6000613998602983614018565b91506139a38261482e565b604082019050919050565b60006139bb602983614018565b91506139c68261487d565b604082019050919050565b60006139de602883614018565b91506139e9826148cc565b604082019050919050565b6000613a01602183614018565b9150613a0c8261491b565b604082019050919050565b6000613a24602f83614018565b9150613a2f8261496a565b604082019050919050565b613a4381614127565b82525050565b613a5281614127565b82525050565b6000602082019050613a6d6000830184613618565b92915050565b600060a082019050613a886000830188613618565b613a956020830187613618565b8181036040830152613aa78186613627565b90508181036060830152613abb8185613627565b90508181036080830152613acf81846136a3565b90509695505050505050565b600060a082019050613af06000830188613618565b613afd6020830187613618565b613b0a6040830186613a49565b613b176060830185613a49565b8181036080830152613b2981846136a3565b90509695505050505050565b60006020820190508181036000830152613b4f8184613627565b905092915050565b60006040820190508181036000830152613b718185613627565b90508181036020830152613b858184613627565b90509392505050565b6000602082019050613ba36000830184613685565b92915050565b6000602082019050613bbe6000830184613694565b92915050565b60006020820190508181036000830152613bde81846136dc565b905092915050565b60006020820190508181036000830152613bff81613715565b9050919050565b60006020820190508181036000830152613c1f81613738565b9050919050565b60006020820190508181036000830152613c3f8161375b565b9050919050565b60006020820190508181036000830152613c5f8161377e565b9050919050565b60006020820190508181036000830152613c7f816137a1565b9050919050565b60006020820190508181036000830152613c9f816137c4565b9050919050565b60006020820190508181036000830152613cbf816137e7565b9050919050565b60006020820190508181036000830152613cdf8161380a565b9050919050565b60006020820190508181036000830152613cff8161382d565b9050919050565b60006020820190508181036000830152613d1f81613850565b9050919050565b60006020820190508181036000830152613d3f81613873565b9050919050565b60006020820190508181036000830152613d5f81613896565b9050919050565b60006020820190508181036000830152613d7f816138b9565b9050919050565b60006020820190508181036000830152613d9f816138dc565b9050919050565b60006020820190508181036000830152613dbf816138ff565b9050919050565b60006020820190508181036000830152613ddf81613922565b9050919050565b60006020820190508181036000830152613dff81613945565b9050919050565b60006020820190508181036000830152613e1f81613968565b9050919050565b60006020820190508181036000830152613e3f8161398b565b9050919050565b60006020820190508181036000830152613e5f816139ae565b9050919050565b60006020820190508181036000830152613e7f816139d1565b9050919050565b60006020820190508181036000830152613e9f816139f4565b9050919050565b60006020820190508181036000830152613ebf81613a17565b9050919050565b6000602082019050613edb6000830184613a49565b92915050565b6000604082019050613ef66000830185613a49565b613f036020830184613a49565b9392505050565b6000613f14613f25565b9050613f2082826141a5565b919050565b6000604051905090565b600067ffffffffffffffff821115613f4a57613f4961427d565b5b602082029050602081019050919050565b600067ffffffffffffffff821115613f7657613f7561427d565b5b602082029050602081019050919050565b600067ffffffffffffffff821115613fa257613fa161427d565b5b613fab826142ce565b9050602081019050919050565b6000819050602082019050919050565b600081519050919050565b600081519050919050565b600081519050919050565b6000602082019050919050565b600082825260208201905092915050565b600082825260208201905092915050565b600082825260208201905092915050565b600061403482614127565b915061403f83614127565b9250827fffffffffffffffffffffffffffffffffffffffffffffffffffffffffffffffff038211156140745761407361421f565b5b828201905092915050565b600061408a82614127565b915061409583614127565b9250828210156140a8576140a761421f565b5b828203905092915050565b60006140be82614107565b9050919050565b60008115159050919050565b6000819050919050565b60007fffffffff0000000000000000000000000000000000000000000000000000000082169050919050565b600073ffffffffffffffffffffffffffffffffffffffff82169050919050565b6000819050919050565b82818337600083830152505050565b60005b8381101561415e578082015181840152602081019050614143565b8381111561416d576000848401525b50505050565b6000600282049050600182168061418b57607f821691505b6020821081141561419f5761419e61424e565b5b50919050565b6141ae826142ce565b810181811067ffffffffffffffff821117156141cd576141cc61427d565b5b80604052505050565b60006141e182614127565b91507fffffffffffffffffffffffffffffffffffffffffffffffffffffffffffffffff8214156142145761421361421f565b5b600182019050919050565b7f4e487b7100000000000000000000000000000000000000000000000000000000600052601160045260246000fd5b7f4e487b7100000000000000000000000000000000000000000000000000000000600052602260045260246000fd5b7f4e487b7100000000000000000000000000000000000000000000000000000000600052604160045260246000fd5b600060033d11156142cb5760046000803e6142c86000516142df565b90505b90565b6000601f19601f8301169050919050565b60008160e01c9050919050565b7f455243313135353a207472616e7366657220746f206e6f6e204552433131353560008201527f526563656976657220696d706c656d656e746572000000000000000000000000602082015250565b7f456e756d657261626c655365743a20696e646578206f7574206f6620626f756e60008201527f6473000000000000000000000000000000000000000000000000000000000000602082015250565b7f455243313135353a204552433131353552656365697665722072656a6563746560008201527f6420746f6b656e73000000000000000000000000000000000000000000000000602082015250565b7f416363657373436f6e74726f6c3a2073656e646572206d75737420626520616e60008201527f2061646d696e20746f206772616e740000000000000000000000000000000000602082015250565b7f5061757361626c653a206e6f7420706175736564000000000000000000000000600082015250565b7f455243313135353a2062616c616e636520717565727920666f7220746865207a60008201527f65726f2061646472657373000000000000000000000000000000000000000000602082015250565b7f455243313135353a206275726e20616d6f756e7420657863656564732062616c60008201527f616e636500000000000000000000000000000000000000000000000000000000602082015250565b7f455243313135355061757361626c653a20746f6b656e207472616e736665722060008201527f7768696c65207061757365640000000000000000000000000000000000000000602082015250565b7f455243313135353a2063616c6c6572206973206e6f74206f776e6572206e6f7260008201527f20617070726f7665640000000000000000000000000000000000000000000000602082015250565b7f416363657373436f6e74726f6c3a2073656e646572206d75737420626520616e60008201527f2061646d696e20746f207265766f6b6500000000000000000000000000000000602082015250565b7f5061757361626c653a2070617573656400000000000000000000000000000000600082015250565b7f455243313135353a207472616e7366657220746f20746865207a65726f20616460008201527f6472657373000000000000000000000000000000000000000000000000000000602082015250565b7f455243313135353a207472616e736665722063616c6c6572206973206e6f742060008201527f6f776e6572206e6f7220617070726f7665640000000000000000000000000000602082015250565b7f455243313135353a206275726e2066726f6d20746865207a65726f206164647260008201527f6573730000000000000000000000000000000000000000000000000000000000602082015250565b7f455243313135355072657365744d696e7465725061757365723a206d7573742060008201527f68617665206d696e74657220726f6c6520746f206d696e740000000000000000602082015250565b7f455243313135353a20696e73756666696369656e742062616c616e636520666f60008201527f72207472616e7366657200000000000000000000000000000000000000000000602082015250565b7f455243313135355072657365744d696e7465725061757365723a206d7573742060008201527f686176652070617573657220726f6c6520746f20756e70617573650000000000602082015250565b7f455243313135355072657365744d696e7465725061757365723a206d7573742060008201527f686176652070617573657220726f6c6520746f20706175736500000000000000602082015250565b7f455243313135353a2073657474696e6720617070726f76616c2073746174757360008201527f20666f722073656c660000000000000000000000000000000000000000000000602082015250565b7f455243313135353a206163636f756e747320616e6420696473206c656e67746860008201527f206d69736d617463680000000000000000000000000000000000000000000000602082015250565b7f455243313135353a2069647320616e6420616d6f756e7473206c656e6774682060008201527f6d69736d61746368000000000000000000000000000000000000000000000000602082015250565b7f455243313135353a206d696e7420746f20746865207a65726f2061646472657360008201527f7300000000000000000000000000000000000000000000000000000000000000602082015250565b7f416363657373436f6e74726f6c3a2063616e206f6e6c792072656e6f756e636560008201527f20726f6c657320666f722073656c660000000000000000000000000000000000602082015250565b600060443d10156149c957614a4c565b6149d1613f25565b60043d036004823e80513d602482011167ffffffffffffffff821117156149f9575050614a4c565b808201805167ffffffffffffffff811115614a175750505050614a4c565b80602083010160043d038501811115614a34575050505050614a4c565b614a43826020018501866141a5565b82955050505050505b90565b614a58816140b3565b8114614a6357600080fd5b50565b614a6f816140c5565b8114614a7a57600080fd5b50565b614a86816140d1565b8114614a9157600080fd5b50565b614a9d816140db565b8114614aa857600080fd5b50565b614ab481614127565b8114614abf57600080fd5b5056fea2646970667358221220d237a3c203e4ec92af52d598537b656e11ecb9c11dbfbdc3f0a04ec8113b3cc764736f6c63430008030033",
  "immutableReferences": {},
  "source": "// SPDX-License-Identifier: MIT\n\npragma solidity ^0.8.0;\n\nimport \"../ERC1155.sol\";\nimport \"../extensions/ERC1155Burnable.sol\";\nimport \"../extensions/ERC1155Pausable.sol\";\nimport \"../../../access/AccessControlEnumerable.sol\";\nimport \"../../../utils/Context.sol\";\n\n/**\n * @dev {ERC1155} token, including:\n *\n *  - ability for holders to burn (destroy) their tokens\n *  - a minter role that allows for token minting (creation)\n *  - a pauser role that allows to stop all token transfers\n *\n * This contract uses {AccessControl} to lock permissioned functions using the\n * different roles - head to its documentation for details.\n *\n * The account that deploys the contract will be granted the minter and pauser\n * roles, as well as the default admin role, which will let it grant both minter\n * and pauser roles to other accounts.\n */\ncontract ERC1155PresetMinterPauser is Context, AccessControlEnumerable, ERC1155Burnable, ERC1155Pausable {\n    bytes32 public constant MINTER_ROLE = keccak256(\"MINTER_ROLE\");\n    bytes32 public constant PAUSER_ROLE = keccak256(\"PAUSER_ROLE\");\n\n    /**\n     * @dev Grants `DEFAULT_ADMIN_ROLE`, `MINTER_ROLE`, and `PAUSER_ROLE` to the account that\n     * deploys the contract.\n     */\n    constructor(string memory uri) ERC1155(uri) {\n        _setupRole(DEFAULT_ADMIN_ROLE, _msgSender());\n\n        _setupRole(MINTER_ROLE, _msgSender());\n        _setupRole(PAUSER_ROLE, _msgSender());\n    }\n\n    /**\n     * @dev Creates `amount` new tokens for `to`, of token type `id`.\n     *\n     * See {ERC1155-_mint}.\n     *\n     * Requirements:\n     *\n     * - the caller must have the `MINTER_ROLE`.\n     */\n    function mint(address to, uint256 id, uint256 amount, bytes memory data) public virtual {\n        require(hasRole(MINTER_ROLE, _msgSender()), \"ERC1155PresetMinterPauser: must have minter role to mint\");\n\n        _mint(to, id, amount, data);\n    }\n\n    /**\n     * @dev xref:ROOT:erc1155.adoc#batch-operations[Batched] variant of {mint}.\n     */\n    function mintBatch(address to, uint256[] memory ids, uint256[] memory amounts, bytes memory data) public virtual {\n        require(hasRole(MINTER_ROLE, _msgSender()), \"ERC1155PresetMinterPauser: must have minter role to mint\");\n\n        _mintBatch(to, ids, amounts, data);\n    }\n\n    /**\n     * @dev Pauses all token transfers.\n     *\n     * See {ERC1155Pausable} and {Pausable-_pause}.\n     *\n     * Requirements:\n     *\n     * - the caller must have the `PAUSER_ROLE`.\n     */\n    function pause() public virtual {\n        require(hasRole(PAUSER_ROLE, _msgSender()), \"ERC1155PresetMinterPauser: must have pauser role to pause\");\n        _pause();\n    }\n\n    /**\n     * @dev Unpauses all token transfers.\n     *\n     * See {ERC1155Pausable} and {Pausable-_unpause}.\n     *\n     * Requirements:\n     *\n     * - the caller must have the `PAUSER_ROLE`.\n     */\n    function unpause() public virtual {\n        require(hasRole(PAUSER_ROLE, _msgSender()), \"ERC1155PresetMinterPauser: must have pauser role to unpause\");\n        _unpause();\n    }\n\n    /**\n     * @dev See {IERC165-supportsInterface}.\n     */\n    function supportsInterface(bytes4 interfaceId) public view virtual override(AccessControlEnumerable, ERC1155) returns (bool) {\n        return super.supportsInterface(interfaceId);\n    }\n\n    function _beforeTokenTransfer(\n        address operator,\n        address from,\n        address to,\n        uint256[] memory ids,\n        uint256[] memory amounts,\n        bytes memory data\n    )\n        internal virtual override(ERC1155, ERC1155Pausable)\n    {\n        super._beforeTokenTransfer(operator, from, to, ids, amounts, data);\n    }\n}\n",
  "sourcePath": "/Users/th3o6a1d/Coding/gated_community/contract/contracts/OpenZeppelin/token/ERC1155/presets/ERC1155PresetMinterPauser.sol",
  "compiler": {
    "name": "solc",
    "version": "0.8.3+commit.8d00100c.Emscripten.clang"
  },
  "schemaVersion": "3.3.4",
  "updatedAt": "2021-04-20T04:38:52.442Z",
  "devdoc": {
    "details": "{ERC1155} token, including:  - ability for holders to burn (destroy) their tokens  - a minter role that allows for token minting (creation)  - a pauser role that allows to stop all token transfers This contract uses {AccessControl} to lock permissioned functions using the different roles - head to its documentation for details. The account that deploys the contract will be granted the minter and pauser roles, as well as the default admin role, which will let it grant both minter and pauser roles to other accounts.",
    "kind": "dev",
    "methods": {
      "balanceOf(address,uint256)": {
        "details": "See {IERC1155-balanceOf}. Requirements: - `account` cannot be the zero address."
      },
      "balanceOfBatch(address[],uint256[])": {
        "details": "See {IERC1155-balanceOfBatch}. Requirements: - `accounts` and `ids` must have the same length."
      },
      "constructor": {
        "details": "Grants `DEFAULT_ADMIN_ROLE`, `MINTER_ROLE`, and `PAUSER_ROLE` to the account that deploys the contract."
      },
      "getRoleAdmin(bytes32)": {
        "details": "Returns the admin role that controls `role`. See {grantRole} and {revokeRole}. To change a role's admin, use {_setRoleAdmin}."
      },
      "getRoleMember(bytes32,uint256)": {
        "details": "Returns one of the accounts that have `role`. `index` must be a value between 0 and {getRoleMemberCount}, non-inclusive. Role bearers are not sorted in any particular way, and their ordering may change at any point. WARNING: When using {getRoleMember} and {getRoleMemberCount}, make sure you perform all queries on the same block. See the following https://forum.openzeppelin.com/t/iterating-over-elements-on-enumerableset-in-openzeppelin-contracts/2296[forum post] for more information."
      },
      "getRoleMemberCount(bytes32)": {
        "details": "Returns the number of accounts that have `role`. Can be used together with {getRoleMember} to enumerate all bearers of a role."
      },
      "grantRole(bytes32,address)": {
        "details": "Overload {grantRole} to track enumerable memberships"
      },
      "hasRole(bytes32,address)": {
        "details": "Returns `true` if `account` has been granted `role`."
      },
      "isApprovedForAll(address,address)": {
        "details": "See {IERC1155-isApprovedForAll}."
      },
      "mint(address,uint256,uint256,bytes)": {
        "details": "Creates `amount` new tokens for `to`, of token type `id`. See {ERC1155-_mint}. Requirements: - the caller must have the `MINTER_ROLE`."
      },
      "mintBatch(address,uint256[],uint256[],bytes)": {
        "details": "xref:ROOT:erc1155.adoc#batch-operations[Batched] variant of {mint}."
      },
      "pause()": {
        "details": "Pauses all token transfers. See {ERC1155Pausable} and {Pausable-_pause}. Requirements: - the caller must have the `PAUSER_ROLE`."
      },
      "paused()": {
        "details": "Returns true if the contract is paused, and false otherwise."
      },
      "renounceRole(bytes32,address)": {
        "details": "Overload {renounceRole} to track enumerable memberships"
      },
      "revokeRole(bytes32,address)": {
        "details": "Overload {revokeRole} to track enumerable memberships"
      },
      "safeBatchTransferFrom(address,address,uint256[],uint256[],bytes)": {
        "details": "See {IERC1155-safeBatchTransferFrom}."
      },
      "safeTransferFrom(address,address,uint256,uint256,bytes)": {
        "details": "See {IERC1155-safeTransferFrom}."
      },
      "setApprovalForAll(address,bool)": {
        "details": "See {IERC1155-setApprovalForAll}."
      },
      "supportsInterface(bytes4)": {
        "details": "See {IERC165-supportsInterface}."
      },
      "unpause()": {
        "details": "Unpauses all token transfers. See {ERC1155Pausable} and {Pausable-_unpause}. Requirements: - the caller must have the `PAUSER_ROLE`."
      },
      "uri(uint256)": {
        "details": "See {IERC1155MetadataURI-uri}. This implementation returns the same URI for *all* token types. It relies on the token type ID substitution mechanism https://eips.ethereum.org/EIPS/eip-1155#metadata[defined in the EIP]. Clients calling this function must replace the `\\{id\\}` substring with the actual token type ID."
      }
    },
    "version": 1
  },
  "userdoc": {
    "kind": "user",
    "methods": {},
    "version": 1
  }
}