{
  "contractName": "GatedCommunity",
  "abi": [
    {
      "inputs": [],
      "stateMutability": "nonpayable",
      "type": "constructor"
    },
    {
      "anonymous": false,
      "inputs": [
        {
          "indexed": true,
          "internalType": "address",
          "name": "owner",
          "type": "address"
        },
        {
          "indexed": true,
          "internalType": "address",
          "name": "approved",
          "type": "address"
        },
        {
          "indexed": true,
          "internalType": "uint256",
          "name": "tokenId",
          "type": "uint256"
        }
      ],
      "name": "Approval",
      "type": "event"
    },
    {
      "anonymous": false,
      "inputs": [
        {
          "indexed": true,
          "internalType": "address",
          "name": "owner",
          "type": "address"
        },
        {
          "indexed": true,
          "internalType": "address",
          "name": "operator",
          "type": "address"
        },
        {
          "indexed": false,
          "internalType": "bool",
          "name": "approved",
          "type": "bool"
        }
      ],
      "name": "ApprovalForAll",
      "type": "event"
    },
    {
      "anonymous": false,
      "inputs": [
        {
          "indexed": true,
          "internalType": "address",
          "name": "from",
          "type": "address"
        },
        {
          "indexed": true,
          "internalType": "address",
          "name": "to",
          "type": "address"
        },
        {
          "indexed": true,
          "internalType": "uint256",
          "name": "tokenId",
          "type": "uint256"
        }
      ],
      "name": "Transfer",
      "type": "event"
    },
    {
      "inputs": [
        {
          "internalType": "address",
          "name": "to",
          "type": "address"
        },
        {
          "internalType": "uint256",
          "name": "tokenId",
          "type": "uint256"
        }
      ],
      "name": "approve",
      "outputs": [],
      "stateMutability": "nonpayable",
      "type": "function"
    },
    {
      "inputs": [
        {
          "internalType": "address",
          "name": "owner",
          "type": "address"
        }
      ],
      "name": "balanceOf",
      "outputs": [
        {
          "internalType": "uint256",
          "name": "",
          "type": "uint256"
        }
      ],
      "stateMutability": "view",
      "type": "function",
      "constant": true
    },
    {
      "inputs": [
        {
          "internalType": "uint256",
          "name": "tokenId",
          "type": "uint256"
        }
      ],
      "name": "getApproved",
      "outputs": [
        {
          "internalType": "address",
          "name": "",
          "type": "address"
        }
      ],
      "stateMutability": "view",
      "type": "function",
      "constant": true
    },
    {
      "inputs": [
        {
          "internalType": "address",
          "name": "owner",
          "type": "address"
        },
        {
          "internalType": "address",
          "name": "operator",
          "type": "address"
        }
      ],
      "name": "isApprovedForAll",
      "outputs": [
        {
          "internalType": "bool",
          "name": "",
          "type": "bool"
        }
      ],
      "stateMutability": "view",
      "type": "function",
      "constant": true
    },
    {
      "inputs": [],
      "name": "maxTokens",
      "outputs": [
        {
          "internalType": "uint8",
          "name": "",
          "type": "uint8"
        }
      ],
      "stateMutability": "view",
      "type": "function",
      "constant": true
    },
    {
      "inputs": [],
      "name": "name",
      "outputs": [
        {
          "internalType": "string",
          "name": "",
          "type": "string"
        }
      ],
      "stateMutability": "view",
      "type": "function",
      "constant": true
    },
    {
      "inputs": [
        {
          "internalType": "uint256",
          "name": "tokenId",
          "type": "uint256"
        }
      ],
      "name": "ownerOf",
      "outputs": [
        {
          "internalType": "address",
          "name": "",
          "type": "address"
        }
      ],
      "stateMutability": "view",
      "type": "function",
      "constant": true
    },
    {
      "inputs": [
        {
          "internalType": "address",
          "name": "from",
          "type": "address"
        },
        {
          "internalType": "address",
          "name": "to",
          "type": "address"
        },
        {
          "internalType": "uint256",
          "name": "tokenId",
          "type": "uint256"
        }
      ],
      "name": "safeTransferFrom",
      "outputs": [],
      "stateMutability": "nonpayable",
      "type": "function"
    },
    {
      "inputs": [
        {
          "internalType": "address",
          "name": "from",
          "type": "address"
        },
        {
          "internalType": "address",
          "name": "to",
          "type": "address"
        },
        {
          "internalType": "uint256",
          "name": "tokenId",
          "type": "uint256"
        },
        {
          "internalType": "bytes",
          "name": "_data",
          "type": "bytes"
        }
      ],
      "name": "safeTransferFrom",
      "outputs": [],
      "stateMutability": "nonpayable",
      "type": "function"
    },
    {
      "inputs": [
        {
          "internalType": "address",
          "name": "operator",
          "type": "address"
        },
        {
          "internalType": "bool",
          "name": "approved",
          "type": "bool"
        }
      ],
      "name": "setApprovalForAll",
      "outputs": [],
      "stateMutability": "nonpayable",
      "type": "function"
    },
    {
      "inputs": [
        {
          "internalType": "bytes4",
          "name": "interfaceId",
          "type": "bytes4"
        }
      ],
      "name": "supportsInterface",
      "outputs": [
        {
          "internalType": "bool",
          "name": "",
          "type": "bool"
        }
      ],
      "stateMutability": "view",
      "type": "function",
      "constant": true
    },
    {
      "inputs": [],
      "name": "symbol",
      "outputs": [
        {
          "internalType": "string",
          "name": "",
          "type": "string"
        }
      ],
      "stateMutability": "view",
      "type": "function",
      "constant": true
    },
    {
      "inputs": [],
      "name": "tokenCount",
      "outputs": [
        {
          "internalType": "uint8",
          "name": "",
          "type": "uint8"
        }
      ],
      "stateMutability": "view",
      "type": "function",
      "constant": true
    },
    {
      "inputs": [
        {
          "internalType": "uint256",
          "name": "tokenId",
          "type": "uint256"
        }
      ],
      "name": "tokenURI",
      "outputs": [
        {
          "internalType": "string",
          "name": "",
          "type": "string"
        }
      ],
      "stateMutability": "view",
      "type": "function",
      "constant": true
    },
    {
      "inputs": [
        {
          "internalType": "address",
          "name": "from",
          "type": "address"
        },
        {
          "internalType": "address",
          "name": "to",
          "type": "address"
        },
        {
          "internalType": "uint256",
          "name": "tokenId",
          "type": "uint256"
        }
      ],
      "name": "transferFrom",
      "outputs": [],
      "stateMutability": "nonpayable",
      "type": "function"
    },
    {
      "inputs": [],
      "name": "obtainToken",
      "outputs": [
        {
          "internalType": "bool",
          "name": "",
          "type": "bool"
        }
      ],
      "stateMutability": "payable",
      "type": "function",
      "payable": true
    },
    {
      "inputs": [],
      "name": "unclaimedTokens",
      "outputs": [
        {
          "internalType": "uint8",
          "name": "",
          "type": "uint8"
        }
      ],
      "stateMutability": "view",
      "type": "function",
      "constant": true
    },
    {
      "inputs": [],
      "name": "totalTokenOwners",
      "outputs": [
        {
          "internalType": "uint8",
          "name": "",
          "type": "uint8"
        }
      ],
      "stateMutability": "view",
      "type": "function",
      "constant": true
    }
  ],
  "bytecode": "0x60806040526000600660006101000a81548160ff021916908360ff1602179055506064600660016101000a81548160ff021916908360ff160217905550670de0b6b3a76400006007553480156200005557600080fd5b506040518060400160405280600e81526020017f4761746564436f6d6d756e6974790000000000000000000000000000000000008152506040518060400160405280600281526020017f47430000000000000000000000000000000000000000000000000000000000008152508160009080519060200190620000da929190620000fc565b508060019080519060200190620000f3929190620000fc565b50505062000211565b8280546200010a90620001ac565b90600052602060002090601f0160209004810192826200012e57600085556200017a565b82601f106200014957805160ff19168380011785556200017a565b828001600101855582156200017a579182015b82811115620001795782518255916020019190600101906200015c565b5b5090506200018991906200018d565b5090565b5b80821115620001a85760008160009055506001016200018e565b5090565b60006002820490506001821680620001c557607f821691505b60208210811415620001dc57620001db620001e2565b5b50919050565b7f4e487b7100000000000000000000000000000000000000000000000000000000600052602260045260246000fd5b6129b380620002216000396000f3fe6080604052600436106101095760003560e01c80638939c53e11610095578063b88d4fde11610064578063b88d4fde14610370578063c394f6cb14610399578063c87b56dd146103c4578063e831574214610401578063e985e9c51461042c57610109565b80638939c53e146102d357806395d89b41146102f15780639f181b5e1461031c578063a22cb4651461034757610109565b806323b872dd116100dc57806323b872dd146101dc5780632cabbfe21461020557806342842e0e146102305780636352211e1461025957806370a082311461029657610109565b806301ffc9a71461010e57806306fdde031461014b578063081812fc14610176578063095ea7b3146101b3575b600080fd5b34801561011a57600080fd5b5061013560048036038101906101309190611b13565b610469565b6040516101429190611ee2565b60405180910390f35b34801561015757600080fd5b5061016061054b565b60405161016d9190611efd565b60405180910390f35b34801561018257600080fd5b5061019d60048036038101906101989190611b65565b6105dd565b6040516101aa9190611e7b565b60405180910390f35b3480156101bf57600080fd5b506101da60048036038101906101d59190611ad7565b610662565b005b3480156101e857600080fd5b5061020360048036038101906101fe91906119d1565b61077a565b005b34801561021157600080fd5b5061021a6107da565b60405161022791906120fa565b60405180910390f35b34801561023c57600080fd5b50610257600480360381019061025291906119d1565b6107f1565b005b34801561026557600080fd5b50610280600480360381019061027b9190611b65565b610811565b60405161028d9190611e7b565b60405180910390f35b3480156102a257600080fd5b506102bd60048036038101906102b8919061196c565b6108c3565b6040516102ca91906120df565b60405180910390f35b6102db61097b565b6040516102e89190611ee2565b60405180910390f35b3480156102fd57600080fd5b50610306610a26565b6040516103139190611efd565b60405180910390f35b34801561032857600080fd5b50610331610ab8565b60405161033e91906120fa565b60405180910390f35b34801561035357600080fd5b5061036e60048036038101906103699190611a9b565b610acb565b005b34801561037c57600080fd5b5061039760048036038101906103929190611a20565b610c4c565b005b3480156103a557600080fd5b506103ae610cae565b6040516103bb91906120fa565b60405180910390f35b3480156103d057600080fd5b506103eb60048036038101906103e69190611b65565b610cdf565b6040516103f89190611efd565b60405180910390f35b34801561040d57600080fd5b50610416610d86565b60405161042391906120fa565b60405180910390f35b34801561043857600080fd5b50610453600480360381019061044e9190611995565b610d99565b6040516104609190611ee2565b60405180910390f35b60007f80ac58cd000000000000000000000000000000000000000000000000000000007bffffffffffffffffffffffffffffffffffffffffffffffffffffffff1916827bffffffffffffffffffffffffffffffffffffffffffffffffffffffff1916148061053457507f5b5e139f000000000000000000000000000000000000000000000000000000007bffffffffffffffffffffffffffffffffffffffffffffffffffffffff1916827bffffffffffffffffffffffffffffffffffffffffffffffffffffffff1916145b80610544575061054382610e2d565b5b9050919050565b60606000805461055a90612397565b80601f016020809104026020016040519081016040528092919081815260200182805461058690612397565b80156105d35780601f106105a8576101008083540402835291602001916105d3565b820191906000526020600020905b8154815290600101906020018083116105b657829003601f168201915b5050505050905090565b60006105e882610e97565b610627576040517f08c379a000000000000000000000000000000000000000000000000000000000815260040161061e9061203f565b60405180910390fd5b6004600083815260200190815260200160002060009054906101000a900473ffffffffffffffffffffffffffffffffffffffff169050919050565b600061066d82610811565b90508073ffffffffffffffffffffffffffffffffffffffff168373ffffffffffffffffffffffffffffffffffffffff1614156106de576040517f08c379a00000000000000000000000000000000000000000000000000000000081526004016106d59061209f565b60405180910390fd5b8073ffffffffffffffffffffffffffffffffffffffff166106fd610f03565b73ffffffffffffffffffffffffffffffffffffffff16148061072c575061072b81610726610f03565b610d99565b5b61076b576040517f08c379a000000000000000000000000000000000000000000000000000000000815260040161076290611fbf565b60405180910390fd5b6107758383610f0b565b505050565b61078b610785610f03565b82610fc4565b6107ca576040517f08c379a00000000000000000000000000000000000000000000000000000000081526004016107c1906120bf565b60405180910390fd5b6107d58383836110a2565b505050565b6000600660009054906101000a900460ff16905090565b61080c83838360405180602001604052806000815250610c4c565b505050565b6000806002600084815260200190815260200160002060009054906101000a900473ffffffffffffffffffffffffffffffffffffffff169050600073ffffffffffffffffffffffffffffffffffffffff168173ffffffffffffffffffffffffffffffffffffffff1614156108ba576040517f08c379a00000000000000000000000000000000000000000000000000000000081526004016108b190611fff565b60405180910390fd5b80915050919050565b60008073ffffffffffffffffffffffffffffffffffffffff168273ffffffffffffffffffffffffffffffffffffffff161415610934576040517f08c379a000000000000000000000000000000000000000000000000000000000815260040161092b90611fdf565b60405180910390fd5b600360008373ffffffffffffffffffffffffffffffffffffffff1673ffffffffffffffffffffffffffffffffffffffff168152602001908152602001600020549050919050565b6000600754341461098b57600080fd5b600660019054906101000a900460ff1660ff16600660009054906101000a900460ff1660ff161080156109c6575060006109c4336108c3565b145b15610a1f576109e733600660009054906101000a900460ff1660ff166112fe565b6001600660008282829054906101000a900460ff16610a069190612204565b92506101000a81548160ff021916908360ff1602179055505b6001905090565b606060018054610a3590612397565b80601f0160208091040260200160405190810160405280929190818152602001828054610a6190612397565b8015610aae5780601f10610a8357610100808354040283529160200191610aae565b820191906000526020600020905b815481529060010190602001808311610a9157829003601f168201915b5050505050905090565b600660009054906101000a900460ff1681565b610ad3610f03565b73ffffffffffffffffffffffffffffffffffffffff168273ffffffffffffffffffffffffffffffffffffffff161415610b41576040517f08c379a0000000000000000000000000000000000000000000000000000000008152600401610b3890611f7f565b60405180910390fd5b8060056000610b4e610f03565b73ffffffffffffffffffffffffffffffffffffffff1673ffffffffffffffffffffffffffffffffffffffff16815260200190815260200160002060008473ffffffffffffffffffffffffffffffffffffffff1673ffffffffffffffffffffffffffffffffffffffff16815260200190815260200160002060006101000a81548160ff0219169083151502179055508173ffffffffffffffffffffffffffffffffffffffff16610bfb610f03565b73ffffffffffffffffffffffffffffffffffffffff167f17307eab39ab6107e8899845ad3d59bd9653f200f220920489ca2b5937696c3183604051610c409190611ee2565b60405180910390a35050565b610c5d610c57610f03565b83610fc4565b610c9c576040517f08c379a0000000000000000000000000000000000000000000000000000000008152600401610c93906120bf565b60405180910390fd5b610ca8848484846114cc565b50505050565b6000600660009054906101000a900460ff16600660019054906101000a900460ff16610cda91906122a0565b905090565b6060610cea82610e97565b610d29576040517f08c379a0000000000000000000000000000000000000000000000000000000008152600401610d209061207f565b60405180910390fd5b6000610d33611528565b90506000815111610d535760405180602001604052806000815250610d7e565b80610d5d8461153f565b604051602001610d6e929190611e57565b6040516020818303038152906040525b915050919050565b600660019054906101000a900460ff1681565b6000600560008473ffffffffffffffffffffffffffffffffffffffff1673ffffffffffffffffffffffffffffffffffffffff16815260200190815260200160002060008373ffffffffffffffffffffffffffffffffffffffff1673ffffffffffffffffffffffffffffffffffffffff16815260200190815260200160002060009054906101000a900460ff16905092915050565b60007f01ffc9a7000000000000000000000000000000000000000000000000000000007bffffffffffffffffffffffffffffffffffffffffffffffffffffffff1916827bffffffffffffffffffffffffffffffffffffffffffffffffffffffff1916149050919050565b60008073ffffffffffffffffffffffffffffffffffffffff166002600084815260200190815260200160002060009054906101000a900473ffffffffffffffffffffffffffffffffffffffff1673ffffffffffffffffffffffffffffffffffffffff1614159050919050565b600033905090565b816004600083815260200190815260200160002060006101000a81548173ffffffffffffffffffffffffffffffffffffffff021916908373ffffffffffffffffffffffffffffffffffffffff160217905550808273ffffffffffffffffffffffffffffffffffffffff16610f7e83610811565b73ffffffffffffffffffffffffffffffffffffffff167f8c5be1e5ebec7d5bd14f71427d1e84f3dd0314c0f7b2291e5b200ac8c7c3b92560405160405180910390a45050565b6000610fcf82610e97565b61100e576040517f08c379a000000000000000000000000000000000000000000000000000000000815260040161100590611f9f565b60405180910390fd5b600061101983610811565b90508073ffffffffffffffffffffffffffffffffffffffff168473ffffffffffffffffffffffffffffffffffffffff16148061108857508373ffffffffffffffffffffffffffffffffffffffff16611070846105dd565b73ffffffffffffffffffffffffffffffffffffffff16145b8061109957506110988185610d99565b5b91505092915050565b8273ffffffffffffffffffffffffffffffffffffffff166110c282610811565b73ffffffffffffffffffffffffffffffffffffffff1614611118576040517f08c379a000000000000000000000000000000000000000000000000000000000815260040161110f9061205f565b60405180910390fd5b600073ffffffffffffffffffffffffffffffffffffffff168273ffffffffffffffffffffffffffffffffffffffff161415611188576040517f08c379a000000000000000000000000000000000000000000000000000000000815260040161117f90611f5f565b60405180910390fd5b6111938383836116ec565b61119e600082610f0b565b6001600360008573ffffffffffffffffffffffffffffffffffffffff1673ffffffffffffffffffffffffffffffffffffffff16815260200190815260200160002060008282546111ee919061226c565b925050819055506001600360008473ffffffffffffffffffffffffffffffffffffffff1673ffffffffffffffffffffffffffffffffffffffff168152602001908152602001600020600082825461124591906121ae565b92505081905550816002600083815260200190815260200160002060006101000a81548173ffffffffffffffffffffffffffffffffffffffff021916908373ffffffffffffffffffffffffffffffffffffffff160217905550808273ffffffffffffffffffffffffffffffffffffffff168473ffffffffffffffffffffffffffffffffffffffff167fddf252ad1be2c89b69c2b068fc378daa952ba7f163c4a11628f55a4df523b3ef60405160405180910390a4505050565b600073ffffffffffffffffffffffffffffffffffffffff168273ffffffffffffffffffffffffffffffffffffffff16141561136e576040517f08c379a00000000000000000000000000000000000000000000000000000000081526004016113659061201f565b60405180910390fd5b61137781610e97565b156113b7576040517f08c379a00000000000000000000000000000000000000000000000000000000081526004016113ae90611f3f565b60405180910390fd5b6113c3600083836116ec565b6001600360008473ffffffffffffffffffffffffffffffffffffffff1673ffffffffffffffffffffffffffffffffffffffff168152602001908152602001600020600082825461141391906121ae565b92505081905550816002600083815260200190815260200160002060006101000a81548173ffffffffffffffffffffffffffffffffffffffff021916908373ffffffffffffffffffffffffffffffffffffffff160217905550808273ffffffffffffffffffffffffffffffffffffffff16600073ffffffffffffffffffffffffffffffffffffffff167fddf252ad1be2c89b69c2b068fc378daa952ba7f163c4a11628f55a4df523b3ef60405160405180910390a45050565b6114d78484846110a2565b6114e3848484846116f1565b611522576040517f08c379a000000000000000000000000000000000000000000000000000000000815260040161151990611f1f565b60405180910390fd5b50505050565b606060405180602001604052806000815250905090565b60606000821415611587576040518060400160405280600181526020017f300000000000000000000000000000000000000000000000000000000000000081525090506116e7565b600082905060005b600082146115b95780806115a2906123fa565b915050600a826115b2919061223b565b915061158f565b60008167ffffffffffffffff8111156115fb577f4e487b7100000000000000000000000000000000000000000000000000000000600052604160045260246000fd5b6040519080825280601f01601f19166020018201604052801561162d5781602001600182028036833780820191505090505b5090505b600085146116e057600182611646919061226c565b9150600a856116559190612443565b603061166191906121ae565b60f81b81838151811061169d577f4e487b7100000000000000000000000000000000000000000000000000000000600052603260045260246000fd5b60200101907effffffffffffffffffffffffffffffffffffffffffffffffffffffffffffff1916908160001a905350600a856116d9919061223b565b9450611631565b8093505050505b919050565b505050565b60006117128473ffffffffffffffffffffffffffffffffffffffff16611888565b1561187b578373ffffffffffffffffffffffffffffffffffffffff1663150b7a0261173b610f03565b8786866040518563ffffffff1660e01b815260040161175d9493929190611e96565b602060405180830381600087803b15801561177757600080fd5b505af19250505080156117a857506040513d601f19601f820116820180604052508101906117a59190611b3c565b60015b61182b573d80600081146117d8576040519150601f19603f3d011682016040523d82523d6000602084013e6117dd565b606091505b50600081511415611823576040517f08c379a000000000000000000000000000000000000000000000000000000000815260040161181a90611f1f565b60405180910390fd5b805181602001fd5b63150b7a0260e01b7bffffffffffffffffffffffffffffffffffffffffffffffffffffffff1916817bffffffffffffffffffffffffffffffffffffffffffffffffffffffff191614915050611880565b600190505b949350505050565b600080823b905060008111915050919050565b60006118ae6118a98461213a565b612115565b9050828152602081018484840111156118c657600080fd5b6118d1848285612355565b509392505050565b6000813590506118e881612921565b92915050565b6000813590506118fd81612938565b92915050565b6000813590506119128161294f565b92915050565b6000815190506119278161294f565b92915050565b600082601f83011261193e57600080fd5b813561194e84826020860161189b565b91505092915050565b60008135905061196681612966565b92915050565b60006020828403121561197e57600080fd5b600061198c848285016118d9565b91505092915050565b600080604083850312156119a857600080fd5b60006119b6858286016118d9565b92505060206119c7858286016118d9565b9150509250929050565b6000806000606084860312156119e657600080fd5b60006119f4868287016118d9565b9350506020611a05868287016118d9565b9250506040611a1686828701611957565b9150509250925092565b60008060008060808587031215611a3657600080fd5b6000611a44878288016118d9565b9450506020611a55878288016118d9565b9350506040611a6687828801611957565b925050606085013567ffffffffffffffff811115611a8357600080fd5b611a8f8782880161192d565b91505092959194509250565b60008060408385031215611aae57600080fd5b6000611abc858286016118d9565b9250506020611acd858286016118ee565b9150509250929050565b60008060408385031215611aea57600080fd5b6000611af8858286016118d9565b9250506020611b0985828601611957565b9150509250929050565b600060208284031215611b2557600080fd5b6000611b3384828501611903565b91505092915050565b600060208284031215611b4e57600080fd5b6000611b5c84828501611918565b91505092915050565b600060208284031215611b7757600080fd5b6000611b8584828501611957565b91505092915050565b611b97816122d4565b82525050565b611ba6816122e6565b82525050565b6000611bb78261216b565b611bc18185612181565b9350611bd1818560208601612364565b611bda81612530565b840191505092915050565b6000611bf082612176565b611bfa8185612192565b9350611c0a818560208601612364565b611c1381612530565b840191505092915050565b6000611c2982612176565b611c3381856121a3565b9350611c43818560208601612364565b80840191505092915050565b6000611c5c603283612192565b9150611c6782612541565b604082019050919050565b6000611c7f601c83612192565b9150611c8a82612590565b602082019050919050565b6000611ca2602483612192565b9150611cad826125b9565b604082019050919050565b6000611cc5601983612192565b9150611cd082612608565b602082019050919050565b6000611ce8602c83612192565b9150611cf382612631565b604082019050919050565b6000611d0b603883612192565b9150611d1682612680565b604082019050919050565b6000611d2e602a83612192565b9150611d39826126cf565b604082019050919050565b6000611d51602983612192565b9150611d5c8261271e565b604082019050919050565b6000611d74602083612192565b9150611d7f8261276d565b602082019050919050565b6000611d97602c83612192565b9150611da282612796565b604082019050919050565b6000611dba602983612192565b9150611dc5826127e5565b604082019050919050565b6000611ddd602f83612192565b9150611de882612834565b604082019050919050565b6000611e00602183612192565b9150611e0b82612883565b604082019050919050565b6000611e23603183612192565b9150611e2e826128d2565b604082019050919050565b611e428161233e565b82525050565b611e5181612348565b82525050565b6000611e638285611c1e565b9150611e6f8284611c1e565b91508190509392505050565b6000602082019050611e906000830184611b8e565b92915050565b6000608082019050611eab6000830187611b8e565b611eb86020830186611b8e565b611ec56040830185611e39565b8181036060830152611ed78184611bac565b905095945050505050565b6000602082019050611ef76000830184611b9d565b92915050565b60006020820190508181036000830152611f178184611be5565b905092915050565b60006020820190508181036000830152611f3881611c4f565b9050919050565b60006020820190508181036000830152611f5881611c72565b9050919050565b60006020820190508181036000830152611f7881611c95565b9050919050565b60006020820190508181036000830152611f9881611cb8565b9050919050565b60006020820190508181036000830152611fb881611cdb565b9050919050565b60006020820190508181036000830152611fd881611cfe565b9050919050565b60006020820190508181036000830152611ff881611d21565b9050919050565b6000602082019050818103600083015261201881611d44565b9050919050565b6000602082019050818103600083015261203881611d67565b9050919050565b6000602082019050818103600083015261205881611d8a565b9050919050565b6000602082019050818103600083015261207881611dad565b9050919050565b6000602082019050818103600083015261209881611dd0565b9050919050565b600060208201905081810360008301526120b881611df3565b9050919050565b600060208201905081810360008301526120d881611e16565b9050919050565b60006020820190506120f46000830184611e39565b92915050565b600060208201905061210f6000830184611e48565b92915050565b600061211f612130565b905061212b82826123c9565b919050565b6000604051905090565b600067ffffffffffffffff82111561215557612154612501565b5b61215e82612530565b9050602081019050919050565b600081519050919050565b600081519050919050565b600082825260208201905092915050565b600082825260208201905092915050565b600081905092915050565b60006121b98261233e565b91506121c48361233e565b9250827fffffffffffffffffffffffffffffffffffffffffffffffffffffffffffffffff038211156121f9576121f8612474565b5b828201905092915050565b600061220f82612348565b915061221a83612348565b92508260ff038211156122305761222f612474565b5b828201905092915050565b60006122468261233e565b91506122518361233e565b925082612261576122606124a3565b5b828204905092915050565b60006122778261233e565b91506122828361233e565b92508282101561229557612294612474565b5b828203905092915050565b60006122ab82612348565b91506122b683612348565b9250828210156122c9576122c8612474565b5b828203905092915050565b60006122df8261231e565b9050919050565b60008115159050919050565b60007fffffffff0000000000000000000000000000000000000000000000000000000082169050919050565b600073ffffffffffffffffffffffffffffffffffffffff82169050919050565b6000819050919050565b600060ff82169050919050565b82818337600083830152505050565b60005b83811015612382578082015181840152602081019050612367565b83811115612391576000848401525b50505050565b600060028204905060018216806123af57607f821691505b602082108114156123c3576123c26124d2565b5b50919050565b6123d282612530565b810181811067ffffffffffffffff821117156123f1576123f0612501565b5b80604052505050565b60006124058261233e565b91507fffffffffffffffffffffffffffffffffffffffffffffffffffffffffffffffff82141561243857612437612474565b5b600182019050919050565b600061244e8261233e565b91506124598361233e565b925082612469576124686124a3565b5b828206905092915050565b7f4e487b7100000000000000000000000000000000000000000000000000000000600052601160045260246000fd5b7f4e487b7100000000000000000000000000000000000000000000000000000000600052601260045260246000fd5b7f4e487b7100000000000000000000000000000000000000000000000000000000600052602260045260246000fd5b7f4e487b7100000000000000000000000000000000000000000000000000000000600052604160045260246000fd5b6000601f19601f8301169050919050565b7f4552433732313a207472616e7366657220746f206e6f6e20455243373231526560008201527f63656976657220696d706c656d656e7465720000000000000000000000000000602082015250565b7f4552433732313a20746f6b656e20616c7265616479206d696e74656400000000600082015250565b7f4552433732313a207472616e7366657220746f20746865207a65726f2061646460008201527f7265737300000000000000000000000000000000000000000000000000000000602082015250565b7f4552433732313a20617070726f766520746f2063616c6c657200000000000000600082015250565b7f4552433732313a206f70657261746f7220717565727920666f72206e6f6e657860008201527f697374656e7420746f6b656e0000000000000000000000000000000000000000602082015250565b7f4552433732313a20617070726f76652063616c6c6572206973206e6f74206f7760008201527f6e6572206e6f7220617070726f76656420666f7220616c6c0000000000000000602082015250565b7f4552433732313a2062616c616e636520717565727920666f7220746865207a6560008201527f726f206164647265737300000000000000000000000000000000000000000000602082015250565b7f4552433732313a206f776e657220717565727920666f72206e6f6e657869737460008201527f656e7420746f6b656e0000000000000000000000000000000000000000000000602082015250565b7f4552433732313a206d696e7420746f20746865207a65726f2061646472657373600082015250565b7f4552433732313a20617070726f76656420717565727920666f72206e6f6e657860008201527f697374656e7420746f6b656e0000000000000000000000000000000000000000602082015250565b7f4552433732313a207472616e73666572206f6620746f6b656e2074686174206960008201527f73206e6f74206f776e0000000000000000000000000000000000000000000000602082015250565b7f4552433732314d657461646174613a2055524920717565727920666f72206e6f60008201527f6e6578697374656e7420746f6b656e0000000000000000000000000000000000602082015250565b7f4552433732313a20617070726f76616c20746f2063757272656e74206f776e6560008201527f7200000000000000000000000000000000000000000000000000000000000000602082015250565b7f4552433732313a207472616e736665722063616c6c6572206973206e6f74206f60008201527f776e6572206e6f7220617070726f766564000000000000000000000000000000602082015250565b61292a816122d4565b811461293557600080fd5b50565b612941816122e6565b811461294c57600080fd5b50565b612958816122f2565b811461296357600080fd5b50565b61296f8161233e565b811461297a57600080fd5b5056fea264697066735822122014e0ece54f5f48c54d9d45873524fd088c68c22d2d3ec84979ecd7acd211066564736f6c63430008030033",
  "immutableReferences": {},
  "source": "// SPDX-License-Identifier: MIT\npragma solidity >=0.4.22;\n\nimport \"./OpenZeppelin/token/ERC721/ERC721.sol\";\n\ncontract GatedCommunity is ERC721(\"GatedCommunity\", \"GC\") {\n    \n    \n    uint8 public tokenCount = 0;\n    uint8 public maxTokens = 100;\n    uint256 initialTokenPrice = 1000000000000000000;\n    \n    constructor() public {\n        \n    }\n\n    function obtainToken() public payable returns(bool) {\n        require(msg.value == initialTokenPrice);\n        if ((tokenCount < maxTokens) && (balanceOf(msg.sender) == 0)){\n            _mint(msg.sender, tokenCount);\n            tokenCount += 1;\n        }\n        return true;\n    }\n\n    function unclaimedTokens() public view returns(uint8){\n        return maxTokens - tokenCount;\n    }\n\n    function totalTokenOwners() public view returns(uint8){\n        return tokenCount;\n    }\n\n}\n",
  "sourcePath": "/Users/th3o6a1d/Coding/gated_community/contract/contracts/GatedCommunity.sol",
  "compiler": {
    "name": "solc",
    "version": "0.8.3+commit.8d00100c.Emscripten.clang"
  },
  "schemaVersion": "3.3.4",
  "updatedAt": "2021-04-22T17:37:15.116Z",
  "networkType": "ethereum",
  "devdoc": {
    "kind": "dev",
    "methods": {
      "approve(address,uint256)": {
        "details": "See {IERC721-approve}."
      },
      "balanceOf(address)": {
        "details": "See {IERC721-balanceOf}."
      },
      "getApproved(uint256)": {
        "details": "See {IERC721-getApproved}."
      },
      "isApprovedForAll(address,address)": {
        "details": "See {IERC721-isApprovedForAll}."
      },
      "name()": {
        "details": "See {IERC721Metadata-name}."
      },
      "ownerOf(uint256)": {
        "details": "See {IERC721-ownerOf}."
      },
      "safeTransferFrom(address,address,uint256)": {
        "details": "See {IERC721-safeTransferFrom}."
      },
      "safeTransferFrom(address,address,uint256,bytes)": {
        "details": "See {IERC721-safeTransferFrom}."
      },
      "setApprovalForAll(address,bool)": {
        "details": "See {IERC721-setApprovalForAll}."
      },
      "supportsInterface(bytes4)": {
        "details": "See {IERC165-supportsInterface}."
      },
      "symbol()": {
        "details": "See {IERC721Metadata-symbol}."
      },
      "tokenURI(uint256)": {
        "details": "See {IERC721Metadata-tokenURI}."
      },
      "transferFrom(address,address,uint256)": {
        "details": "See {IERC721-transferFrom}."
      }
    },
    "version": 1
  },
  "userdoc": {
    "kind": "user",
    "methods": {},
    "version": 1
  }
}