{
  "contractName": "GatedCommunity",
  "abi": [
    {
      "inputs": [],
      "stateMutability": "nonpayable",
      "type": "constructor"
    },
    {
      "anonymous": false,
      "inputs": [
        {
          "indexed": true,
          "internalType": "address",
          "name": "owner",
          "type": "address"
        },
        {
          "indexed": true,
          "internalType": "address",
          "name": "approved",
          "type": "address"
        },
        {
          "indexed": true,
          "internalType": "uint256",
          "name": "tokenId",
          "type": "uint256"
        }
      ],
      "name": "Approval",
      "type": "event"
    },
    {
      "anonymous": false,
      "inputs": [
        {
          "indexed": true,
          "internalType": "address",
          "name": "owner",
          "type": "address"
        },
        {
          "indexed": true,
          "internalType": "address",
          "name": "operator",
          "type": "address"
        },
        {
          "indexed": false,
          "internalType": "bool",
          "name": "approved",
          "type": "bool"
        }
      ],
      "name": "ApprovalForAll",
      "type": "event"
    },
    {
      "anonymous": false,
      "inputs": [
        {
          "indexed": true,
          "internalType": "address",
          "name": "from",
          "type": "address"
        },
        {
          "indexed": true,
          "internalType": "address",
          "name": "to",
          "type": "address"
        },
        {
          "indexed": true,
          "internalType": "uint256",
          "name": "tokenId",
          "type": "uint256"
        }
      ],
      "name": "Transfer",
      "type": "event"
    },
    {
      "inputs": [
        {
          "internalType": "address",
          "name": "to",
          "type": "address"
        },
        {
          "internalType": "uint256",
          "name": "tokenId",
          "type": "uint256"
        }
      ],
      "name": "approve",
      "outputs": [],
      "stateMutability": "nonpayable",
      "type": "function"
    },
    {
      "inputs": [
        {
          "internalType": "address",
          "name": "owner",
          "type": "address"
        }
      ],
      "name": "balanceOf",
      "outputs": [
        {
          "internalType": "uint256",
          "name": "",
          "type": "uint256"
        }
      ],
      "stateMutability": "view",
      "type": "function"
    },
    {
      "inputs": [
        {
          "internalType": "uint256",
          "name": "tokenId",
          "type": "uint256"
        }
      ],
      "name": "getApproved",
      "outputs": [
        {
          "internalType": "address",
          "name": "",
          "type": "address"
        }
      ],
      "stateMutability": "view",
      "type": "function"
    },
    {
      "inputs": [
        {
          "internalType": "address",
          "name": "owner",
          "type": "address"
        },
        {
          "internalType": "address",
          "name": "operator",
          "type": "address"
        }
      ],
      "name": "isApprovedForAll",
      "outputs": [
        {
          "internalType": "bool",
          "name": "",
          "type": "bool"
        }
      ],
      "stateMutability": "view",
      "type": "function"
    },
    {
      "inputs": [],
      "name": "maxTokens",
      "outputs": [
        {
          "internalType": "uint8",
          "name": "",
          "type": "uint8"
        }
      ],
      "stateMutability": "view",
      "type": "function"
    },
    {
      "inputs": [],
      "name": "name",
      "outputs": [
        {
          "internalType": "string",
          "name": "",
          "type": "string"
        }
      ],
      "stateMutability": "view",
      "type": "function"
    },
    {
      "inputs": [
        {
          "internalType": "uint256",
          "name": "tokenId",
          "type": "uint256"
        }
      ],
      "name": "ownerOf",
      "outputs": [
        {
          "internalType": "address",
          "name": "",
          "type": "address"
        }
      ],
      "stateMutability": "view",
      "type": "function"
    },
    {
      "inputs": [
        {
          "internalType": "address",
          "name": "from",
          "type": "address"
        },
        {
          "internalType": "address",
          "name": "to",
          "type": "address"
        },
        {
          "internalType": "uint256",
          "name": "tokenId",
          "type": "uint256"
        }
      ],
      "name": "safeTransferFrom",
      "outputs": [],
      "stateMutability": "nonpayable",
      "type": "function"
    },
    {
      "inputs": [
        {
          "internalType": "address",
          "name": "from",
          "type": "address"
        },
        {
          "internalType": "address",
          "name": "to",
          "type": "address"
        },
        {
          "internalType": "uint256",
          "name": "tokenId",
          "type": "uint256"
        },
        {
          "internalType": "bytes",
          "name": "_data",
          "type": "bytes"
        }
      ],
      "name": "safeTransferFrom",
      "outputs": [],
      "stateMutability": "nonpayable",
      "type": "function"
    },
    {
      "inputs": [
        {
          "internalType": "address",
          "name": "operator",
          "type": "address"
        },
        {
          "internalType": "bool",
          "name": "approved",
          "type": "bool"
        }
      ],
      "name": "setApprovalForAll",
      "outputs": [],
      "stateMutability": "nonpayable",
      "type": "function"
    },
    {
      "inputs": [
        {
          "internalType": "bytes4",
          "name": "interfaceId",
          "type": "bytes4"
        }
      ],
      "name": "supportsInterface",
      "outputs": [
        {
          "internalType": "bool",
          "name": "",
          "type": "bool"
        }
      ],
      "stateMutability": "view",
      "type": "function"
    },
    {
      "inputs": [],
      "name": "symbol",
      "outputs": [
        {
          "internalType": "string",
          "name": "",
          "type": "string"
        }
      ],
      "stateMutability": "view",
      "type": "function"
    },
    {
      "inputs": [],
      "name": "tokenCount",
      "outputs": [
        {
          "internalType": "uint8",
          "name": "",
          "type": "uint8"
        }
      ],
      "stateMutability": "view",
      "type": "function"
    },
    {
      "inputs": [
        {
          "internalType": "uint256",
          "name": "tokenId",
          "type": "uint256"
        }
      ],
      "name": "tokenURI",
      "outputs": [
        {
          "internalType": "string",
          "name": "",
          "type": "string"
        }
      ],
      "stateMutability": "view",
      "type": "function"
    },
    {
      "inputs": [
        {
          "internalType": "address",
          "name": "from",
          "type": "address"
        },
        {
          "internalType": "address",
          "name": "to",
          "type": "address"
        },
        {
          "internalType": "uint256",
          "name": "tokenId",
          "type": "uint256"
        }
      ],
      "name": "transferFrom",
      "outputs": [],
      "stateMutability": "nonpayable",
      "type": "function"
    },
    {
      "inputs": [],
      "name": "obtainToken",
      "outputs": [],
      "stateMutability": "nonpayable",
      "type": "function"
    },
    {
      "inputs": [],
      "name": "unclaimedTokens",
      "outputs": [
        {
          "internalType": "uint256",
          "name": "",
          "type": "uint256"
        }
      ],
      "stateMutability": "view",
      "type": "function"
    }
  ],
  "bytecode": "0x60806040526001600660006101000a81548160ff021916908360ff1602179055506064600660016101000a81548160ff021916908360ff1602179055503480156200004957600080fd5b506040518060400160405280600e81526020017f4761746564436f6d6d756e6974790000000000000000000000000000000000008152506040518060400160405280600281526020017f47430000000000000000000000000000000000000000000000000000000000008152508160009080519060200190620000ce929190620000f0565b508060019080519060200190620000e7929190620000f0565b50505062000205565b828054620000fe90620001a0565b90600052602060002090601f0160209004810192826200012257600085556200016e565b82601f106200013d57805160ff19168380011785556200016e565b828001600101855582156200016e579182015b828111156200016d57825182559160200191906001019062000150565b5b5090506200017d919062000181565b5090565b5b808211156200019c57600081600090555060010162000182565b5090565b60006002820490506001821680620001b957607f821691505b60208210811415620001d057620001cf620001d6565b5b50919050565b7f4e487b7100000000000000000000000000000000000000000000000000000000600052602260045260246000fd5b61287d80620002156000396000f3fe608060405234801561001057600080fd5b506004361061010b5760003560e01c80638939c53e116100a2578063b88d4fde11610071578063b88d4fde146102a4578063c394f6cb146102c0578063c87b56dd146102de578063e83157421461030e578063e985e9c51461032c5761010b565b80638939c53e1461024257806395d89b411461024c5780639f181b5e1461026a578063a22cb465146102885761010b565b806323b872dd116100de57806323b872dd146101aa57806342842e0e146101c65780636352211e146101e257806370a08231146102125761010b565b806301ffc9a71461011057806306fdde0314610140578063081812fc1461015e578063095ea7b31461018e575b600080fd5b61012a600480360381019061012591906119dd565b61035c565b6040516101379190611dac565b60405180910390f35b61014861043e565b6040516101559190611dc7565b60405180910390f35b61017860048036038101906101739190611a2f565b6104d0565b6040516101859190611d45565b60405180910390f35b6101a860048036038101906101a391906119a1565b610555565b005b6101c460048036038101906101bf919061189b565b61066d565b005b6101e060048036038101906101db919061189b565b6106cd565b005b6101fc60048036038101906101f79190611a2f565b6106ed565b6040516102099190611d45565b60405180910390f35b61022c60048036038101906102279190611836565b61079f565b6040516102399190611fa9565b60405180910390f35b61024a610857565b005b6102546108ed565b6040516102619190611dc7565b60405180910390f35b61027261097f565b60405161027f9190611fc4565b60405180910390f35b6102a2600480360381019061029d9190611965565b610992565b005b6102be60048036038101906102b991906118ea565b610b13565b005b6102c8610b75565b6040516102d59190611fa9565b60405180910390f35b6102f860048036038101906102f39190611a2f565b610ba9565b6040516103059190611dc7565b60405180910390f35b610316610c50565b6040516103239190611fc4565b60405180910390f35b6103466004803603810190610341919061185f565b610c63565b6040516103539190611dac565b60405180910390f35b60007f80ac58cd000000000000000000000000000000000000000000000000000000007bffffffffffffffffffffffffffffffffffffffffffffffffffffffff1916827bffffffffffffffffffffffffffffffffffffffffffffffffffffffff1916148061042757507f5b5e139f000000000000000000000000000000000000000000000000000000007bffffffffffffffffffffffffffffffffffffffffffffffffffffffff1916827bffffffffffffffffffffffffffffffffffffffffffffffffffffffff1916145b80610437575061043682610cf7565b5b9050919050565b60606000805461044d90612261565b80601f016020809104026020016040519081016040528092919081815260200182805461047990612261565b80156104c65780601f1061049b576101008083540402835291602001916104c6565b820191906000526020600020905b8154815290600101906020018083116104a957829003601f168201915b5050505050905090565b60006104db82610d61565b61051a576040517f08c379a000000000000000000000000000000000000000000000000000000000815260040161051190611f09565b60405180910390fd5b6004600083815260200190815260200160002060009054906101000a900473ffffffffffffffffffffffffffffffffffffffff169050919050565b6000610560826106ed565b90508073ffffffffffffffffffffffffffffffffffffffff168373ffffffffffffffffffffffffffffffffffffffff1614156105d1576040517f08c379a00000000000000000000000000000000000000000000000000000000081526004016105c890611f69565b60405180910390fd5b8073ffffffffffffffffffffffffffffffffffffffff166105f0610dcd565b73ffffffffffffffffffffffffffffffffffffffff16148061061f575061061e81610619610dcd565b610c63565b5b61065e576040517f08c379a000000000000000000000000000000000000000000000000000000000815260040161065590611e89565b60405180910390fd5b6106688383610dd5565b505050565b61067e610678610dcd565b82610e8e565b6106bd576040517f08c379a00000000000000000000000000000000000000000000000000000000081526004016106b490611f89565b60405180910390fd5b6106c8838383610f6c565b505050565b6106e883838360405180602001604052806000815250610b13565b505050565b6000806002600084815260200190815260200160002060009054906101000a900473ffffffffffffffffffffffffffffffffffffffff169050600073ffffffffffffffffffffffffffffffffffffffff168173ffffffffffffffffffffffffffffffffffffffff161415610796576040517f08c379a000000000000000000000000000000000000000000000000000000000815260040161078d90611ec9565b60405180910390fd5b80915050919050565b60008073ffffffffffffffffffffffffffffffffffffffff168273ffffffffffffffffffffffffffffffffffffffff161415610810576040517f08c379a000000000000000000000000000000000000000000000000000000000815260040161080790611ea9565b60405180910390fd5b600360008373ffffffffffffffffffffffffffffffffffffffff1673ffffffffffffffffffffffffffffffffffffffff168152602001908152602001600020549050919050565b600660019054906101000a900460ff1660ff16600660009054906101000a900460ff1660ff16108015610892575060006108903361079f565b145b156108eb576108b333600660009054906101000a900460ff1660ff166111c8565b6001600660008282829054906101000a900460ff166108d291906120ce565b92506101000a81548160ff021916908360ff1602179055505b565b6060600180546108fc90612261565b80601f016020809104026020016040519081016040528092919081815260200182805461092890612261565b80156109755780601f1061094a57610100808354040283529160200191610975565b820191906000526020600020905b81548152906001019060200180831161095857829003601f168201915b5050505050905090565b600660009054906101000a900460ff1681565b61099a610dcd565b73ffffffffffffffffffffffffffffffffffffffff168273ffffffffffffffffffffffffffffffffffffffff161415610a08576040517f08c379a00000000000000000000000000000000000000000000000000000000081526004016109ff90611e49565b60405180910390fd5b8060056000610a15610dcd565b73ffffffffffffffffffffffffffffffffffffffff1673ffffffffffffffffffffffffffffffffffffffff16815260200190815260200160002060008473ffffffffffffffffffffffffffffffffffffffff1673ffffffffffffffffffffffffffffffffffffffff16815260200190815260200160002060006101000a81548160ff0219169083151502179055508173ffffffffffffffffffffffffffffffffffffffff16610ac2610dcd565b73ffffffffffffffffffffffffffffffffffffffff167f17307eab39ab6107e8899845ad3d59bd9653f200f220920489ca2b5937696c3183604051610b079190611dac565b60405180910390a35050565b610b24610b1e610dcd565b83610e8e565b610b63576040517f08c379a0000000000000000000000000000000000000000000000000000000008152600401610b5a90611f89565b60405180910390fd5b610b6f84848484611396565b50505050565b6000600660009054906101000a900460ff16600660019054906101000a900460ff16610ba1919061216a565b60ff16905090565b6060610bb482610d61565b610bf3576040517f08c379a0000000000000000000000000000000000000000000000000000000008152600401610bea90611f49565b60405180910390fd5b6000610bfd6113f2565b90506000815111610c1d5760405180602001604052806000815250610c48565b80610c2784611409565b604051602001610c38929190611d21565b6040516020818303038152906040525b915050919050565b600660019054906101000a900460ff1681565b6000600560008473ffffffffffffffffffffffffffffffffffffffff1673ffffffffffffffffffffffffffffffffffffffff16815260200190815260200160002060008373ffffffffffffffffffffffffffffffffffffffff1673ffffffffffffffffffffffffffffffffffffffff16815260200190815260200160002060009054906101000a900460ff16905092915050565b60007f01ffc9a7000000000000000000000000000000000000000000000000000000007bffffffffffffffffffffffffffffffffffffffffffffffffffffffff1916827bffffffffffffffffffffffffffffffffffffffffffffffffffffffff1916149050919050565b60008073ffffffffffffffffffffffffffffffffffffffff166002600084815260200190815260200160002060009054906101000a900473ffffffffffffffffffffffffffffffffffffffff1673ffffffffffffffffffffffffffffffffffffffff1614159050919050565b600033905090565b816004600083815260200190815260200160002060006101000a81548173ffffffffffffffffffffffffffffffffffffffff021916908373ffffffffffffffffffffffffffffffffffffffff160217905550808273ffffffffffffffffffffffffffffffffffffffff16610e48836106ed565b73ffffffffffffffffffffffffffffffffffffffff167f8c5be1e5ebec7d5bd14f71427d1e84f3dd0314c0f7b2291e5b200ac8c7c3b92560405160405180910390a45050565b6000610e9982610d61565b610ed8576040517f08c379a0000000000000000000000000000000000000000000000000000000008152600401610ecf90611e69565b60405180910390fd5b6000610ee3836106ed565b90508073ffffffffffffffffffffffffffffffffffffffff168473ffffffffffffffffffffffffffffffffffffffff161480610f5257508373ffffffffffffffffffffffffffffffffffffffff16610f3a846104d0565b73ffffffffffffffffffffffffffffffffffffffff16145b80610f635750610f628185610c63565b5b91505092915050565b8273ffffffffffffffffffffffffffffffffffffffff16610f8c826106ed565b73ffffffffffffffffffffffffffffffffffffffff1614610fe2576040517f08c379a0000000000000000000000000000000000000000000000000000000008152600401610fd990611f29565b60405180910390fd5b600073ffffffffffffffffffffffffffffffffffffffff168273ffffffffffffffffffffffffffffffffffffffff161415611052576040517f08c379a000000000000000000000000000000000000000000000000000000000815260040161104990611e29565b60405180910390fd5b61105d8383836115b6565b611068600082610dd5565b6001600360008573ffffffffffffffffffffffffffffffffffffffff1673ffffffffffffffffffffffffffffffffffffffff16815260200190815260200160002060008282546110b89190612136565b925050819055506001600360008473ffffffffffffffffffffffffffffffffffffffff1673ffffffffffffffffffffffffffffffffffffffff168152602001908152602001600020600082825461110f9190612078565b92505081905550816002600083815260200190815260200160002060006101000a81548173ffffffffffffffffffffffffffffffffffffffff021916908373ffffffffffffffffffffffffffffffffffffffff160217905550808273ffffffffffffffffffffffffffffffffffffffff168473ffffffffffffffffffffffffffffffffffffffff167fddf252ad1be2c89b69c2b068fc378daa952ba7f163c4a11628f55a4df523b3ef60405160405180910390a4505050565b600073ffffffffffffffffffffffffffffffffffffffff168273ffffffffffffffffffffffffffffffffffffffff161415611238576040517f08c379a000000000000000000000000000000000000000000000000000000000815260040161122f90611ee9565b60405180910390fd5b61124181610d61565b15611281576040517f08c379a000000000000000000000000000000000000000000000000000000000815260040161127890611e09565b60405180910390fd5b61128d600083836115b6565b6001600360008473ffffffffffffffffffffffffffffffffffffffff1673ffffffffffffffffffffffffffffffffffffffff16815260200190815260200160002060008282546112dd9190612078565b92505081905550816002600083815260200190815260200160002060006101000a81548173ffffffffffffffffffffffffffffffffffffffff021916908373ffffffffffffffffffffffffffffffffffffffff160217905550808273ffffffffffffffffffffffffffffffffffffffff16600073ffffffffffffffffffffffffffffffffffffffff167fddf252ad1be2c89b69c2b068fc378daa952ba7f163c4a11628f55a4df523b3ef60405160405180910390a45050565b6113a1848484610f6c565b6113ad848484846115bb565b6113ec576040517f08c379a00000000000000000000000000000000000000000000000000000000081526004016113e390611de9565b60405180910390fd5b50505050565b606060405180602001604052806000815250905090565b60606000821415611451576040518060400160405280600181526020017f300000000000000000000000000000000000000000000000000000000000000081525090506115b1565b600082905060005b6000821461148357808061146c906122c4565b915050600a8261147c9190612105565b9150611459565b60008167ffffffffffffffff8111156114c5577f4e487b7100000000000000000000000000000000000000000000000000000000600052604160045260246000fd5b6040519080825280601f01601f1916602001820160405280156114f75781602001600182028036833780820191505090505b5090505b600085146115aa576001826115109190612136565b9150600a8561151f919061230d565b603061152b9190612078565b60f81b818381518110611567577f4e487b7100000000000000000000000000000000000000000000000000000000600052603260045260246000fd5b60200101907effffffffffffffffffffffffffffffffffffffffffffffffffffffffffffff1916908160001a905350600a856115a39190612105565b94506114fb565b8093505050505b919050565b505050565b60006115dc8473ffffffffffffffffffffffffffffffffffffffff16611752565b15611745578373ffffffffffffffffffffffffffffffffffffffff1663150b7a02611605610dcd565b8786866040518563ffffffff1660e01b81526004016116279493929190611d60565b602060405180830381600087803b15801561164157600080fd5b505af192505050801561167257506040513d601f19601f8201168201806040525081019061166f9190611a06565b60015b6116f5573d80600081146116a2576040519150601f19603f3d011682016040523d82523d6000602084013e6116a7565b606091505b506000815114156116ed576040517f08c379a00000000000000000000000000000000000000000000000000000000081526004016116e490611de9565b60405180910390fd5b805181602001fd5b63150b7a0260e01b7bffffffffffffffffffffffffffffffffffffffffffffffffffffffff1916817bffffffffffffffffffffffffffffffffffffffffffffffffffffffff19161491505061174a565b600190505b949350505050565b600080823b905060008111915050919050565b600061177861177384612004565b611fdf565b90508281526020810184848401111561179057600080fd5b61179b84828561221f565b509392505050565b6000813590506117b2816127eb565b92915050565b6000813590506117c781612802565b92915050565b6000813590506117dc81612819565b92915050565b6000815190506117f181612819565b92915050565b600082601f83011261180857600080fd5b8135611818848260208601611765565b91505092915050565b60008135905061183081612830565b92915050565b60006020828403121561184857600080fd5b6000611856848285016117a3565b91505092915050565b6000806040838503121561187257600080fd5b6000611880858286016117a3565b9250506020611891858286016117a3565b9150509250929050565b6000806000606084860312156118b057600080fd5b60006118be868287016117a3565b93505060206118cf868287016117a3565b92505060406118e086828701611821565b9150509250925092565b6000806000806080858703121561190057600080fd5b600061190e878288016117a3565b945050602061191f878288016117a3565b935050604061193087828801611821565b925050606085013567ffffffffffffffff81111561194d57600080fd5b611959878288016117f7565b91505092959194509250565b6000806040838503121561197857600080fd5b6000611986858286016117a3565b9250506020611997858286016117b8565b9150509250929050565b600080604083850312156119b457600080fd5b60006119c2858286016117a3565b92505060206119d385828601611821565b9150509250929050565b6000602082840312156119ef57600080fd5b60006119fd848285016117cd565b91505092915050565b600060208284031215611a1857600080fd5b6000611a26848285016117e2565b91505092915050565b600060208284031215611a4157600080fd5b6000611a4f84828501611821565b91505092915050565b611a618161219e565b82525050565b611a70816121b0565b82525050565b6000611a8182612035565b611a8b818561204b565b9350611a9b81856020860161222e565b611aa4816123fa565b840191505092915050565b6000611aba82612040565b611ac4818561205c565b9350611ad481856020860161222e565b611add816123fa565b840191505092915050565b6000611af382612040565b611afd818561206d565b9350611b0d81856020860161222e565b80840191505092915050565b6000611b2660328361205c565b9150611b318261240b565b604082019050919050565b6000611b49601c8361205c565b9150611b548261245a565b602082019050919050565b6000611b6c60248361205c565b9150611b7782612483565b604082019050919050565b6000611b8f60198361205c565b9150611b9a826124d2565b602082019050919050565b6000611bb2602c8361205c565b9150611bbd826124fb565b604082019050919050565b6000611bd560388361205c565b9150611be08261254a565b604082019050919050565b6000611bf8602a8361205c565b9150611c0382612599565b604082019050919050565b6000611c1b60298361205c565b9150611c26826125e8565b604082019050919050565b6000611c3e60208361205c565b9150611c4982612637565b602082019050919050565b6000611c61602c8361205c565b9150611c6c82612660565b604082019050919050565b6000611c8460298361205c565b9150611c8f826126af565b604082019050919050565b6000611ca7602f8361205c565b9150611cb2826126fe565b604082019050919050565b6000611cca60218361205c565b9150611cd58261274d565b604082019050919050565b6000611ced60318361205c565b9150611cf88261279c565b604082019050919050565b611d0c81612208565b82525050565b611d1b81612212565b82525050565b6000611d2d8285611ae8565b9150611d398284611ae8565b91508190509392505050565b6000602082019050611d5a6000830184611a58565b92915050565b6000608082019050611d756000830187611a58565b611d826020830186611a58565b611d8f6040830185611d03565b8181036060830152611da18184611a76565b905095945050505050565b6000602082019050611dc16000830184611a67565b92915050565b60006020820190508181036000830152611de18184611aaf565b905092915050565b60006020820190508181036000830152611e0281611b19565b9050919050565b60006020820190508181036000830152611e2281611b3c565b9050919050565b60006020820190508181036000830152611e4281611b5f565b9050919050565b60006020820190508181036000830152611e6281611b82565b9050919050565b60006020820190508181036000830152611e8281611ba5565b9050919050565b60006020820190508181036000830152611ea281611bc8565b9050919050565b60006020820190508181036000830152611ec281611beb565b9050919050565b60006020820190508181036000830152611ee281611c0e565b9050919050565b60006020820190508181036000830152611f0281611c31565b9050919050565b60006020820190508181036000830152611f2281611c54565b9050919050565b60006020820190508181036000830152611f4281611c77565b9050919050565b60006020820190508181036000830152611f6281611c9a565b9050919050565b60006020820190508181036000830152611f8281611cbd565b9050919050565b60006020820190508181036000830152611fa281611ce0565b9050919050565b6000602082019050611fbe6000830184611d03565b92915050565b6000602082019050611fd96000830184611d12565b92915050565b6000611fe9611ffa565b9050611ff58282612293565b919050565b6000604051905090565b600067ffffffffffffffff82111561201f5761201e6123cb565b5b612028826123fa565b9050602081019050919050565b600081519050919050565b600081519050919050565b600082825260208201905092915050565b600082825260208201905092915050565b600081905092915050565b600061208382612208565b915061208e83612208565b9250827fffffffffffffffffffffffffffffffffffffffffffffffffffffffffffffffff038211156120c3576120c261233e565b5b828201905092915050565b60006120d982612212565b91506120e483612212565b92508260ff038211156120fa576120f961233e565b5b828201905092915050565b600061211082612208565b915061211b83612208565b92508261212b5761212a61236d565b5b828204905092915050565b600061214182612208565b915061214c83612208565b92508282101561215f5761215e61233e565b5b828203905092915050565b600061217582612212565b915061218083612212565b9250828210156121935761219261233e565b5b828203905092915050565b60006121a9826121e8565b9050919050565b60008115159050919050565b60007fffffffff0000000000000000000000000000000000000000000000000000000082169050919050565b600073ffffffffffffffffffffffffffffffffffffffff82169050919050565b6000819050919050565b600060ff82169050919050565b82818337600083830152505050565b60005b8381101561224c578082015181840152602081019050612231565b8381111561225b576000848401525b50505050565b6000600282049050600182168061227957607f821691505b6020821081141561228d5761228c61239c565b5b50919050565b61229c826123fa565b810181811067ffffffffffffffff821117156122bb576122ba6123cb565b5b80604052505050565b60006122cf82612208565b91507fffffffffffffffffffffffffffffffffffffffffffffffffffffffffffffffff8214156123025761230161233e565b5b600182019050919050565b600061231882612208565b915061232383612208565b9250826123335761233261236d565b5b828206905092915050565b7f4e487b7100000000000000000000000000000000000000000000000000000000600052601160045260246000fd5b7f4e487b7100000000000000000000000000000000000000000000000000000000600052601260045260246000fd5b7f4e487b7100000000000000000000000000000000000000000000000000000000600052602260045260246000fd5b7f4e487b7100000000000000000000000000000000000000000000000000000000600052604160045260246000fd5b6000601f19601f8301169050919050565b7f4552433732313a207472616e7366657220746f206e6f6e20455243373231526560008201527f63656976657220696d706c656d656e7465720000000000000000000000000000602082015250565b7f4552433732313a20746f6b656e20616c7265616479206d696e74656400000000600082015250565b7f4552433732313a207472616e7366657220746f20746865207a65726f2061646460008201527f7265737300000000000000000000000000000000000000000000000000000000602082015250565b7f4552433732313a20617070726f766520746f2063616c6c657200000000000000600082015250565b7f4552433732313a206f70657261746f7220717565727920666f72206e6f6e657860008201527f697374656e7420746f6b656e0000000000000000000000000000000000000000602082015250565b7f4552433732313a20617070726f76652063616c6c6572206973206e6f74206f7760008201527f6e6572206e6f7220617070726f76656420666f7220616c6c0000000000000000602082015250565b7f4552433732313a2062616c616e636520717565727920666f7220746865207a6560008201527f726f206164647265737300000000000000000000000000000000000000000000602082015250565b7f4552433732313a206f776e657220717565727920666f72206e6f6e657869737460008201527f656e7420746f6b656e0000000000000000000000000000000000000000000000602082015250565b7f4552433732313a206d696e7420746f20746865207a65726f2061646472657373600082015250565b7f4552433732313a20617070726f76656420717565727920666f72206e6f6e657860008201527f697374656e7420746f6b656e0000000000000000000000000000000000000000602082015250565b7f4552433732313a207472616e73666572206f6620746f6b656e2074686174206960008201527f73206e6f74206f776e0000000000000000000000000000000000000000000000602082015250565b7f4552433732314d657461646174613a2055524920717565727920666f72206e6f60008201527f6e6578697374656e7420746f6b656e0000000000000000000000000000000000602082015250565b7f4552433732313a20617070726f76616c20746f2063757272656e74206f776e6560008201527f7200000000000000000000000000000000000000000000000000000000000000602082015250565b7f4552433732313a207472616e736665722063616c6c6572206973206e6f74206f60008201527f776e6572206e6f7220617070726f766564000000000000000000000000000000602082015250565b6127f48161219e565b81146127ff57600080fd5b50565b61280b816121b0565b811461281657600080fd5b50565b612822816121bc565b811461282d57600080fd5b50565b61283981612208565b811461284457600080fd5b5056fea2646970667358221220c7c80187e51390db313fd19198fca72083cb0f690421f43a6b65b293da4c57b564736f6c63430008030033",
  "immutableReferences": {},
  "source": "// SPDX-License-Identifier: MIT\npragma solidity >=0.4.22;\n\nimport \"./OpenZeppelin/token/ERC721/ERC721.sol\";\n\ncontract GatedCommunity is ERC721(\"GatedCommunity\", \"GC\") {\n    \n    \n    uint8 public tokenCount = 1;\n    uint8 public maxTokens = 100;\n    \n    constructor() public {\n        \n    }\n\n    function obtainToken() public {\n        if ((tokenCount < maxTokens) && (balanceOf(msg.sender) == 0)){\n            _mint(msg.sender, tokenCount);\n            tokenCount += 1;\n        }\n    }\n\n    function unclaimedTokens() public view returns(uint){\n        return maxTokens - tokenCount;\n    }\n\n}\n",
  "sourcePath": "/Users/th3o6a1d/Coding/gated_community/contract/contracts/GatedCommunity.sol",
  "compiler": {
    "name": "solc",
    "version": "0.8.3+commit.8d00100c.Emscripten.clang"
  },
  "schemaVersion": "3.3.4",
  "updatedAt": "2021-04-20T06:42:00.674Z",
  "devdoc": {
    "kind": "dev",
    "methods": {
      "approve(address,uint256)": {
        "details": "See {IERC721-approve}."
      },
      "balanceOf(address)": {
        "details": "See {IERC721-balanceOf}."
      },
      "getApproved(uint256)": {
        "details": "See {IERC721-getApproved}."
      },
      "isApprovedForAll(address,address)": {
        "details": "See {IERC721-isApprovedForAll}."
      },
      "name()": {
        "details": "See {IERC721Metadata-name}."
      },
      "ownerOf(uint256)": {
        "details": "See {IERC721-ownerOf}."
      },
      "safeTransferFrom(address,address,uint256)": {
        "details": "See {IERC721-safeTransferFrom}."
      },
      "safeTransferFrom(address,address,uint256,bytes)": {
        "details": "See {IERC721-safeTransferFrom}."
      },
      "setApprovalForAll(address,bool)": {
        "details": "See {IERC721-setApprovalForAll}."
      },
      "supportsInterface(bytes4)": {
        "details": "See {IERC165-supportsInterface}."
      },
      "symbol()": {
        "details": "See {IERC721Metadata-symbol}."
      },
      "tokenURI(uint256)": {
        "details": "See {IERC721Metadata-tokenURI}."
      },
      "transferFrom(address,address,uint256)": {
        "details": "See {IERC721-transferFrom}."
      }
    },
    "version": 1
  },
  "userdoc": {
    "kind": "user",
    "methods": {},
    "version": 1
  }
}